:1000000048760020AD410000A9410000A941000050
:1000100000000000000000000000000000000000E0
:10002000000000000000000000000000452100006A
:100030000000000000000000112200005522000016
:10004000A9410000A94100008516000045130000E9
:10005000A9410000A9410000A9410000951F00002E
:10006000A51F0000B51F0000C51F0000D51F000020
:10007000E51F0000051700001517000025170000F8
:1000800035170000451700005517000065170000E0
:100090007517000081120000A9410000A94100006D
:1000A000A941000010B5064C2378002B07D1054B61
:1000B000002B02D0044800E000BF0123237010BDD4
:1000C000700000200000000040590000084B10B5EF
:1000D000002B03D00749084800E000BF0748036829
:1000E000002B00D110BD064B002BFBD09847F9E741
:1000F000000000007400002040590000405900003A
:1001000000000000F0B583B000236A461370193375
:100110005370322269468A704B216846C170642050
:100120006C4620716171A271E371194B9847194AAD
:10013000137820210B431370174B98470122174B5C
:100140001A701748174B98470024164F164D00E0B9
:1001500000246B461E5D320021001448B847310070
:100160000020A84701341248124B9847084B984783
:10017000084A137820210B431370074B984701223C
:10018000064B1A700648B847072CE1DCE1E7C04689
:10019000C5210000B8550020DD210000B955002020
:1001A0004C550000CD0400006107000078550000A8
:1001B00088130000F531000010B50B0000280ED0A8
:1001C0001821002B09D0036000218180C1800281A9
:1001D00041811800034B98470021080010BD1821E9
:1001E000FBE7C046734C000010B5041E1AD000296E
:1001F0001AD043899BB20220002B00D110BDA388E6
:100200002268944663441B780B70A08801302189D2
:10021000064B984789B2A1806389013B9BB26381F9
:100220000120EBE71820E9E71820E7E77145000017
:1002300070B5041E16D0C3880268944663441970D2
:10024000C088258901302900074B984789B2E18091
:1002500063899BB200209D4203D9638901339BB21D
:10026000638170BD1820FCE771450000F0B5C646FB
:1002700000B504000E001500002837D0002937D043
:1002800001891620914202D204BC9046F0BDE38859
:100290009B188B4219DCE08823689C46604431003F
:1002A000144B9847E088268940193100124B984733
:1002B00089B2E18063895D19ADB2658163899BB2C2
:1002C00000209E42E0D26681DEE7E788CF1BBFB206
:1002D000E08823689C4660443A003100054B98460C
:1002E0009847EA1BF1192068C047DBE71820CBE7E5
:1002F0001820C9E7614C000071450000F0B5C64602
:1003000000B504000E001500002837D0002937D0B2
:1003100001891620914202D204BC9046F0BDE388C8
:100320009B188B4219DCE08823689C4660443100AE
:10033000144B9847E088268940193100124B9847A2
:1003400089B2E18063895D19ADB2658163899BB231
:1003500000209E42E0D26681DEE7E788CF1BBFB275
:10036000E08823689C4660443A003100054B98467B
:100370009847EA1BF1192068C047DBE71820CBE754
:100380001820C9E7614C000071450000002805D025
:10039000002905D043890B80002070471820FCE716
:1003A0001820FAE710B5244B9847244B98470A22A7
:1003B000234B1A703823234AD35CDBB2102B29D08D
:1003C0000AD9202B11D0402B2BD11F481F4B984707
:1003D00002221B4B1A720EE0012B22D11C481B4B30
:1003E00098470022164B1A7205E01A48174B984797
:1003F0000122134B1A721248174B9847174B984714
:10040000002815D10022164B1A700132154B1A70B4
:10041000002010BD14480D4B98470322084B1A7258
:10042000E9E71248094B98470422054B1A72E2E7A4
:100430000F48064B9847E5E77D410000A104000006
:100440003055002000040040C85500000D05000094
:10045000AC55000094550000450900004D05000012
:10046000A5550020A4550020E455000000560000CA
:100470002056000010B5064B9847002804D10548C7
:10048000054B9847002010BD0448034B9847F9E7F7
:10049000290E0000505600000D0500003C560000DB
:1004A00010B5084B1B781D20002B00D010BD1A384A
:1004B000054B9847002801D01C20F7E70122014B8B
:1004C0001A70F3E78C000020B90B00000FB410B5D0
:1004D000B4B00B4B1B781F20002B04D134B010BCE0
:1004E00008BC04B0184737AB0193369AC82102A85C
:1004F000044CA04702A90320034B98470020EDE7D6
:100500008C000020494D0000450D00000FB410B5CF
:10051000B4B00B4B1B781F20002B04D134B010BC9F
:1005200008BC04B0184737AB0193369AC82102A81B
:10053000044CA04702A90320034B98470020EDE795
:100540008C000020494D0000CD0D000010B5094B76
:100550001B781D20002B00D010BD074B98470028AA
:1005600003D01D2801D01C20F6E70122014B1A7090
:100570000020F1E78D0000207D05000070B58AB0F5
:10058000244B1B781D24002B02D020000AB070BD24
:100590006433009300236A4613711374802292031C
:1005A0000292012252426946CA818A810B770893DE
:1005B000D7338B84184B0593184B0693184E194D5F
:1005C0006A4619493000A847041EF9D1144B1D682A
:1005D0002B8A1BB2002BFBDB2B68022213432B6000
:1005E0000F4E3068114B98471F2318401E3B834025
:1005F0000F4A1360F088002310212A8A0A4204D18E
:1006000001338342F9D310232B820122014B1A704C
:10061000BBE7C046B8000020030008000300090043
:10062000900000205D0E000000100042651F0000D9
:1006300000E100E070B504000D001720012C00D986
:1006400070BD164B1B5D0830002BF9D0002922D05D
:100650000800134B98470600C31D1620802BEFD8C7
:100660002B78012E08D901210122695C4B4001320F
:1006700092B211009642F8D8E2010A4EB6182A004A
:1006800009493000094DA847094B185D3100094B55
:1006900098470020D4E71820D2E7C046BC010020CC
:1006A000E34C0000BC00002060560000854C0000B8
:1006B0006C560000CD0D000070B58EB001AC00236B
:1006C0000025A38023816570E5722573A57365738A
:1006D00025746361A3612577236263622385638543
:1006E000A385033323700422A2703C32A271A3724B
:1006F0003E3A01211448154EB047FA222923E2540C
:100700000133E554F93A2274143B6361113BA36150
:100710002B21655422771632226263620C4D22002F
:100720000C4928000C4B98472A68D37B5BB2002BFE
:10073000FBDB138802210B4313800848034B9847C7
:1007400000200EB070BDC046705600000D050000C0
:10075000C001002000300042D91300007C56000088
:1007600010B50A0001000248024B9847002010BD56
:10077000C001002035160000F0B5C64600B50500E2
:100780000C00002800D1C8E0002900D1C9E00B7896
:100790000A2B00D9C7E09B00644AD3589F46002328
:1007A00003800B7A43600020B8E0012303800B7ABA
:1007B00043600020B2E0022303800B7A43600020F4
:1007C000ACE0032303800823CB5643600923CB56B8
:1007D00083600020A2E0042303800B894360544F10
:1007E0000022544B08694969B847534EB047A86086
:1007F0000022504BA069E169B847B047E860206A21
:10080000616AB0472861238D6B61002086E0052373
:1008100003800B7A4360002080E006230380444F6E
:100820000022444B8868C968B847434EB0476860A7
:100830000022404B20696169B847B047A86000209A
:100840006CE0072303803D4B984688689847384FF3
:1008500000223B4BB847384EB0476860E068C0475D
:100860000022374BB847B047A860002056E0082365
:100870000380063B0B724360304B984608699847EB
:100880002B4F00222E4BB8472B4EB047A860606913
:10089000C04700222A4BB847B047E860A069C0476C
:1008A0000022274BB847B0472861002036E00923D3
:1008B00003801F4F00221F4B8868C968B8471E4E2F
:1008C000B047686000221B4B20696169B847B04798
:1008D000A860A069E169B047E860206A616AB04732
:1008E00028610022164BA06AE16AB847B0476861E8
:1008F0000022134B206B616BB847B047A8613823C7
:10090000E356EB613923E3562B62002006E00A230D
:1009100003800B7A4360002000E0182004BC90465E
:10092000F0BD1820FAE71320F8E7C04694560000FF
:10093000D14500000088C340D14A0000394B000077
:1009400000002440F0B58FB000283DD01F4B1C00A4
:10095000803400221A7001339C42FBD1010005A8AB
:100960001B4B98471323002802D018000FB0F0BD8E
:1009700005AC228817491548174B98472388174A12
:10098000D35C002B13DD0124154F134E05ADA300DE
:100990005A5939006846B04769460C48114B984788
:1009A000230001342A880D498A5C9A42EEDC074C08
:1009B00021000D480D4B9847210001200C4B984712
:1009C000031ED2D01023D0E71823CEE7DC0100208D
:1009D00079070000C0560000854C0000E856000072
:1009E000D0560000C94C0000D85600000D0500008C
:1009F0003506000070B582B00F4B98470F4B18605A
:100A000000240F4E0F4D0120B04728510434102C04
:100A1000F9D100230C4A1370019301330093002392
:100A20008222520000210948094CA047094B9847EF
:100A3000102002B070BDC046F51F00005C0200200F
:100A4000B1270000A8550020B8550020050100007E
:100A50005D2D0000492F000010B5044B18680121DE
:100A6000034B98473F22034B1A7010BD5C020020D5
:100A7000152000000000002070B582B00400430083
:100A80001B189B00114DED186B469E1D3100280070
:100A90000F4B98473388002B04D101220D4B1A5578
:100AA00002B070BD6B465E1D310028000A4B9847AE
:100AB0000A49630032785A52C918E0000419A400A8
:100AC00007480019074B9847EAE7C0469C120020E8
:100AD0008D030000CC220020E9010000D02200207C
:100AE000D8220020D51D000010B50320014B9847E7
:100AF00010BDC046790A000010B50220014B98478E
:100B000010BDC046790A000010B50120014B98477E
:100B100010BDC046790A000010B50020014B98476F
:100B200010BDC046790A000010B5040040000C4B0F
:100B3000195C001980000B4B18180B4B98470B4B96
:100B40001B5D022B00D010BD63000549C918E000F1
:100B50000419A40006480019064B9847F3E7C0465D
:100B60009412002060020020310200009012002048
:100B7000D8220020F11D000010B50320014B98473A
:100B800010BDC046290B000010B50220014B98474C
:100B900010BDC046290B000010B50120014B98473D
:100BA00010BDC046290B000010B50020014B98472E
:100BB00010BDC046290B0000F0B5CE46474680B5B3
:100BC0008FB004001725032805D928000FB00CBCEE
:100BD00090469946F0BD009046003618B600870250
:100BE0004649C919464880198022D200454B98478A
:100BF00005350028E9D14449C919444880198022A3
:100C0000D200404B98470028DFD18023DB050293B8
:100C100000230393FF2202A90A818B72CB72012267
:100C20000A754A758B75CB7508930B774B77A300C4
:100C3000374A9A580692374A9B580593364B2201F9
:100C4000D1580A919B185A680B929A680C92DB68EB
:100C500001930D93E6003619B600304B9E19009BA8
:100C60009F002F4BFB5800932E4F02AA0099300093
:100C7000B847051EF9D1294B9946E7003B199B005F
:100C80004A469B5898461800274B98471F23184000
:100C90001E3B8340254A13603F19BF004B46FA585C
:100CA000138A1BB2002BFBDB43461B680222134353
:100CB00042461360A30099461D4B4A46D158012273
:100CC00030001C4B98469847E3001B199B00134FBC
:100CD000FF1821373B78022213433B70164B4A46DC
:100CE000D15800223000C04701223B7801210B433C
:100CF0003B70124B1A55124B1A5566E790020020B2
:100D000060020020B9010000CC1200209C120020DB
:100D1000145700002457000034570000D822002048
:100D200074570000F91A0000651F000000E100E0A0
:100D3000F4560000BD1D0000045700009012002072
:100D4000CC220020F0B583B004000D001720032C46
:100D500001D903B0F0BD01300029FAD00800134BCF
:100D600098470190124FA60001214942F059114BBA
:100D700098476B469A886000001980000E4B18183F
:100D800029000E4B9847F0590023002200210C4DFA
:100D9000A8470C4B1B5D0020012BDAD10222094B26
:100DA0001A552000084B98470020D2E7E34C00007A
:100DB000A8550020012A00009C1200206D020000AE
:100DC00025260000CC220020790A000070B504001E
:100DD0000D001720032C00D970BD01300029FBD075
:100DE00008000C4B984782B26000001980000A4B43
:100DF00018182900094B9847094B1B5D0020012B4F
:100E0000EAD10222064B1A552000064B98470020D3
:100E1000E2E7C046E34C00009C120020FD02000007
:100E2000CC220020790A0000094B1B781F20002BE0
:100E300000D17047074B1B781D38002BF9D1802259
:100E4000D203054B9A610122024B1A700020F0E791
:100E5000692300206823002000440041F0B5CE46FD
:100E6000474680B583B007000D00160039600800C2
:100E7000524B9847524A116A841C0123A3400B43EA
:100E8000136201A933790B700D30C4B220004D4BB1
:100E9000984720004C4B9847307900214B4B98479E
:100EA0002B681C209B0704D503B00CBC90469946C8
:100EB000F0BD2B681738DB07F6D438683F4B9846EF
:100EC000984704004249434B9847A400424BE750DF
:100ED00000233B767B76002291467B83BB832522D1
:100EE0004946B9543B6214332B603C682000C0472C
:100EF000804680236A4613706B464A465A70012327
:100F00006A4693706B464A46DA707069B569002884
:100F100048D06B46187002236A465370000CC0B26A
:100F200069462E4B9847002D41D06B461D70022319
:100F30006A465370280CC0B26946284B9847B3895B
:100F4000FB80F3893B81327C8023002A04D1244B2F
:100F50009B789B07DB0FDB01B2681343327F002ACB
:100F600002D08022D20513432268316A0A43134318
:100F7000236080235B00636045460D35E8B2194B62
:100F800098473368FA21C90059434B1E1818164B6D
:100F90009847431F4020FF2B00D985E7DBB26381D0
:100FA000002081E700212000104B9847B1E7012184
:100FB00020000E4B98470500B7E7C046C11A000055
:100FC0000004004051400000C53F0000FD18000033
:100FD000B1100000291F0000E85500204941000021
:100FE000002000416D4000009142000049190000BE
:100FF0000268138A1BB2002BFBDB704770B504003C
:101000000668458B838BED1AADB2838B013B9BB297
:101010008383838B9BB2002B1CD1C37A002B04D01B
:1010200072688023DB0213437360A37A002B08D01D
:1010300020000F4B98477268C0239B0213437360D4
:101040000CE020000A4B9847726880235B02134330
:10105000736003E07368074A134073602000044B19
:101060009847236A5D19337EDBB22B7070BDC04692
:10107000F10F0000FFFFFBFF70B5040005682B8A2D
:101080005B0703D51E222523C25470BD468B838B7C
:10109000F61AB6B2838B013B9BB28383034B98470E
:1010A000236A9E193378DBB22B76EEE7F10F00004E
:1010B00070B580006E4BC4582668637E257E1D4047
:1010C000638B9BB2002B03D1A38B9BB2002B41D12E
:1010D000638B9BB2002B08D0A38B9BB2002B04D157
:1010E0002533E35C052B00D166E0638B9BB2002BBC
:1010F0000AD0A38B9BB2002B06D0338A9B0600D567
:101100007BE041222523E254638B9BB2002B08D065
:10111000A38B9BB2002B04D12533E35C052B00D1BC
:1011200077E02523E35C052B13D02523E35C002B1C
:101130000FD00323337300236383A3832533E35C3E
:10114000412B03D0A37A002B00D084E06B0700D59D
:101150008AE070BDB37BDB0707D50123B373338A05
:101160009B0702D541222523E254338A5B0707D52A
:1011700018222523E2540023A383A37A002B0ED147
:10118000A38B9BB263832523E35C052BBCD11F3368
:10119000E35C002B0CD02000364B9847B4E72000CE
:1011A000354B98477268C0239B0213437360E7E78F
:1011B0002000324B9847A7E71F33E35C002B00D099
:1011C00093E7033333730023638325330022E25410
:1011D000A37A002B08D10123B373EB0700D493E764
:1011E000E368200098478FE72000234B98477268F8
:1011F000C0239B0213437360EFE72423E35C002BBF
:1012000003D120001D4B98477EE72000194B9847DB
:101210007AE71F33E35C012B00D082E7023333739C
:101220000023638325330022E254AB0703D5242334
:10123000E35C012B0BD0EB0700D472E72423E35CC3
:10124000002B00D06DE7E3682000984769E7236929
:101250002000984765E72000074B98477268E02315
:10126000DB021343736071E763692000984770E7FE
:10127000E8550020FD0F0000F10F0000791000007C
:1012800070B52F4B1D682B681A7EDC7D1440E20779
:1012900016D4630708D504232A681376EB7E9B07D0
:1012A00002D5AB7E9B0742D4A30708D502232A6848
:1012B0001376EB7E5B0702D5AB7E5B073BD470BD3C
:1012C00001221A762A68537E5BB2002BFBDB696928
:1012D0008B1C6B61538B9BB20B802B8B013B9BB2A6
:1012E0002B83002B11D06B7F002BD2D02A68537E2A
:1012F0005BB2002BFBDB137B02210B4313732A68C9
:10130000537E5BB2002BFBDBC3E701232A68937596
:101310002B7F052BBDD100232B77EB7EDB07B8D5C8
:10132000AB7EDB07B5D52800AB689847B1E728004E
:10133000EB689847B8E72B6928009847BFE7C04695
:10134000BC55002010B5144B1A681468D18A938AD2
:101350001940207AE379034058B2002806DBD80709
:101360000FD5CB070AD40123237210BD4B0702D43B
:1013700080232372F9E713699847F9E79368984740
:10138000F1E79B07F1D58B0702D402232372ECE728
:10139000D3689847F9E7C046C055002030B589B0FA
:1013A0000C4B6A4632CB32C232CB32C212CB12C2A3
:1013B000009B98420BD001239A0069465258824202
:1013C00006D00133082BF7D1002009B030BD00232F
:1013D000D8B2FAE784570000F0B5C64600B588B029
:1013E00004000D00160008008B4B9847804606ABA2
:1013F00013221A705A7001329A70DA7001321A711F
:101400005A7101329A71DA7102AA844B203383CB6C
:1014100083C21B6813600023A360E36023616361E0
:101420002376637643469A007D4BD4502560B3788B
:10143000082B08D023712B880520DB0708D508B0BE
:1014400004BC9046F0BD17204246D207F7D4F1E71E
:10145000EB7B1730DB06F2D42B889B07EFD4337C71
:10146000002B00D07CE0337F002B00D084E06D495E
:10147000086A43465A0002ABD35A03430B62B3785F
:10148000082B00D188E033786A46137006AB4246D9
:101490009F5C69463800644B98473800634B984717
:1014A0003189B3880B43B178B2791143194373780A
:1014B000002B02D080231B0119432268D37B5BB22F
:1014C000002BFBDB2980717B4B1E99418900B37B8C
:1014D000002B01D0012319432268D37B5BB2002B80
:1014E000FBDBFF232B71002905D02268D37B5BB285
:1014F000002BFBDB6971B17AF37A002B01D010234A
:101500001943337B002B01D0202319432268D37B5E
:101510005BB2002BFBDBA9712268D37B5BB2002B93
:10152000FBDB2379042B40D0082B5FD01720002B46
:1015300000D084E7D37B5BB2002BFBDB338D2B82A7
:101540002268D37B5BB2002BFBDB738D2B8322687D
:10155000D37B5BB2002BFBDBB38D6B8300206EE78C
:1015600001A901238B700022CA70327E0A704B7071
:10157000307D2F4B984776E701A901238B7000221D
:10158000CA702432B21812780A704B701F33F318E5
:101590001878274B98476AE7086A43465A1C520056
:1015A00002ABD35A03430B626DE7D37B5BB2002BD4
:1015B000FBDB2823F35C2B742268D37B5BB2002B0C
:1015C000FBDB2923F35C2B752268D37B5BB2002BFA
:1015D000FBDB2A23F35C2B762268D37B5BB2002BE8
:1015E000FBDB2B23F35C6B76002028E7D37B5BB21D
:1015F000002BFBDBB36A2B612268D37B5BB2002B31
:10160000FBDBF36AAB612268D37B5BB2002BFBDBB5
:10161000336BEB61002012E79D130000845700003C
:10162000C85500200004004051400000C53F0000A4
:101630004941000010B50468E37B5BB2002BFBDB83
:101640000379042B05D0082B14D01720002B08D0C9
:1016500010BD17200129FBD8D2B261180A760020EC
:10166000F6E717200129F3D892B20C3149000A534A
:101670000020EDE717200129EAD8063189000A5138
:101680000020E5E710B50122034B9A71034B1B685C
:10169000002B00D0984710BD00100040C45500201A
:1016A00070B58000164BC45823689D7B227E637EF4
:1016B00013401D40EB0706D4AB070BD4EB0610D448
:1016C000AB0615D470BD2000A3689847012322689B
:1016D0009373F1E72000E36898470223226893732D
:1016E000ECE7200023699847102322689373E7E70B
:1016F000200063699847236820229A73E2E7C04676
:10170000C855002010B50020014B984710BDC046B9
:10171000A116000010B50120014B984710BDC0462E
:10172000A116000010B50220014B984710BDC0461D
:10173000A116000010B50320014B984710BDC0460C
:10174000A116000010B50420014B984710BDC046FB
:10175000A116000010B50520014B984710BDC046EA
:10176000A116000010B50620014B984710BDC046D9
:10177000A116000010B50720014B984710BDC046C8
:10178000A1160000F0B5DE4657464E464546E0B588
:1017900087B08046049116001F000022002300211C
:1017A0008B463F2401202100009601975C4603945C
:1017B0004446059413E02024641A0500E540A84639
:1017C00014E0009C019D121BAB415C464D462C432E
:1017D000A346039C45462C430394013925D320247A
:1017E00064420C19E7D40500A540A84604008C40CB
:1017F000A14692185B4114001D00059E4F463E40D5
:10180000B446049E47463E40B246664657463E436F
:1018100003D00600264332002B00009C019D9D4210
:10182000DBD8CED19442D8D8CBE7039B58461900D9
:1018300007B03CBC90469946A246AB46F0BD10B5F9
:10184000490840230024814202D2180010BD1C0028
:10185000091A631C9BB28842F9D94023FF2CF4D8A3
:1018600014800023F1E70000F0B583B00F001600EC
:1018700008AA117804004C434022BC4202D910004F
:1018800003B0F0BD002B14D1020008000021194C58
:10189000A04701003A0000230020174CA047002277
:1018A0000123121A8B41120C1B041A4332800022AE
:1018B000E5E70022012BF9D10A00002300210D4C9D
:1018C000A04702000B0000920193380000210A4C4F
:1018D000A047050080239B0140229842CFD8790F72
:1018E000F800009A019BA047EA00821AD2B2520384
:1018F0002A43DBE77D4500008517000010B582B064
:1019000004000E4B1B78002B07D0002905D10B4B90
:101910005B78834210D01D200CE001A90C700C20D4
:10192000074B98470C20074B9847044B5C700122EB
:101930001A70002002B010BD0020FBE76C230020CD
:1019400051400000C53F0000404B984231D00AD9B9
:101950003F4B98424DD03F4B98425AD03E4B984215
:1019600037D0002070473D4B98420CD03C4B9842FA
:10197000F7D1012917D000295DD0022915D00329FC
:1019800015D00020EEE7012907D0002951D0022907
:1019900005D0032905D00020E4E73248E2E73248C9
:1019A000E0E73248DEE73248DCE73248DAE732483F
:1019B000D8E7012907D000293FD0022905D0032903
:1019C00005D00020CEE72D48CCE72D48CAE72D48AA
:1019D000C8E7012907D0002931D0022905D0032901
:1019E00005D00020BEE72848BCE72848BAE72848C9
:1019F000B8E7012907D0002923D0022905D00329FF
:101A000005D00020AEE72348ACE72348AAE72348E7
:101A1000A8E7012907D0002915D0022905D00329FC
:101A200005D000209EE71E489CE71E489AE71E4806
:101A300098E71E4896E7032094E71D4892E71D4863
:101A400090E71D488EE71D488CE7C0460010004215
:101A500000180042001C004200140042000800422E
:101A6000000C00420300050003000600030007000D
:101A70000300010003001E0003001F000300090013
:101A800003000A0003000B00030011000300120012
:101A90000300130003000D0003000E0003000F00FD
:101AA00003001700030018000300190003000400DE
:101AB000030008000300100003000C0003001600E0
:101AC00030B587B00B4B6A4632CB32C232CB32C212
:101AD000009B83420BD001239A00694652588242F0
:101AE00006D00133062BF7D1002007B030BD00230C
:101AF000D8B2FAE7B4570000F0B5DE4657464E4676
:101B00004546E0B58DB005000C00160029600800C0
:101B10007E4B9847020023680520DB0706D50DB0F1
:101B20003CBC90469946A246AB46F0BD23681730B0
:101B30009B07F4D47649086A971C0123BB400343F2
:101B40000B620BA9737F0B700D32D7B23800714B4B
:101B500098473800704B9847707F00216F4B98472B
:101B6000F37A6B71337DAB71737DEB712B689846A3
:101B70001800664B98470D3000220E2302A98C46B0
:101B800063441A8033680393F3689A46B37D9B4697
:101B900073689946002B14D080235B05994530D19A
:101BA000F37D002B31D133691F00C0B25C4B9847E5
:101BB00001000E2202AB9C4662443800594B984704
:101BC00020E0F37D002B0BD01023009300230E2286
:101BD00002A98C466244B1693069534FB84711E09D
:101BE00033691F00C0B24E4B984701001023009389
:101BF00000230E2202A88446624438004A4FB847A8
:101C000000E00020002800D089E70E2302AA9446B5
:101C100063441B88424653815346039F1F434B46F0
:101C20001F435B465B071F43F37D002B01D1043349
:101C30001F43317D4904737D1B040B43B17AF27A53
:101C4000114319433389FF2B03D0802252041743D9
:101C50001943337F002B03D1344B9B789B0701D56D
:101C600080231F432A68138A1BB2002BFBDB4346E9
:101C700059602A68138A1BB2002BFBDB43461F60A6
:101C80000AAB80221A7000225A70DA709A70336A96
:101C90000693736A0793B36A0893F36A03930993ED
:101CA000002706AE06E02000214B984707E00137E9
:101CB000042F0DD0F9B2BB0098590028F3D0431C73
:101CC000F5D00AA90870000CC0B21A4B9847EEE78D
:101CD0000023AB60EB602B61AB616B610022EB8397
:101CE000AB832033EA540133EA540133EA5401331D
:101CF000EA542868054B984704000F490F4B984752
:101D0000A4000F4BE550002009E7C046C11A0000AF
:101D10000004004051400000C53F0000FD180000D5
:101D20006D4000003F1800006918000000200041CD
:101D30004919000049410000011E0000291F000050
:101D4000E8550020F8B506000C00150007680A4B9E
:101D50009847F38B9BB2002B03D0084B9847052084
:101D6000F8BDF583054B9847B46105222323F2544F
:101D7000223B7B730020F3E7793A0000B93A000078
:101D8000F8B506000C00150007680A4B9847B38B9E
:101D90009BB2002B03D0084B98470520F8BDB583B4
:101DA000054B9847746105222223F2541E3B7B7336
:101DB0000020F3E7793A0000B93A0000931C9B0039
:101DC00019502021012393401A00435C13434354CC
:101DD0007047000010B5C2791C23002A01D11800F9
:101DE00010BD0122014B98470300F8E7451D000094
:101DF00010B50122014B984710BDC046811D00005F
:101E0000F8B58000464BC5582C68238A1BB2002BBE
:101E1000FBDBA37B667B1E402023EB5C2122AF5CB7
:101E20001F40F30722D5EB8B9BB2002B1CD0AA6975
:101E30001378DBB2511CA961697901290ED09BB2DC
:101E4000DB05DB0D2383EB8B013B9BB2EB83002B8C
:101E50000CD1013323730133637307E05178090216
:101E60000B430232AA61EBE701232373B30706D5C4
:101E70000223237300222133EA54FB0716D473078D
:101E80004DD5AB8B9BB2002B47D0238ADBB25A07D0
:101E900020D09A070ED51A222223EA54203B23820F
:101EA0007B073CD52B692800984738E02800AB68B1
:101EB0009847E4E75A0705D51E222223EA541E3B21
:101EC0002382EDE7DB07EBD513222223EA54213BE3
:101ED0002382E5E7238BDB05DB0DDAB269690A7043
:101EE0006A69511C69616979012910D0AB8B013B8A
:101EF0009BB2AB83002B12D10433237300221E3319
:101F0000EA54BB070BD5EB682800984707E01B0A8B
:101F100053706B6901336B61E8E704232373F8BDE9
:101F2000E855002070470000F0B50A4B1B78002BE5
:101F30000CD1094F094E0A4D0024DE515A19146084
:101F40000433182BF9D10122024B1A708000024B86
:101F5000C150F0BD6E23002070230020251F00001B
:101F6000E855002000B583B007236A46137001339B
:101F70005370013393700133D37001331371013304
:101F80005371034B98476B46185603B000BDC046CB
:101F9000C11A000010B5024B1B680020984710BD05
:101FA0007023002010B5024B5B680120984710BDDC
:101FB0007023002010B5024B9B680220984710BD8B
:101FC0007023002010B5024BDB680320984710BD3A
:101FD0007023002010B5024B1B690420984710BDE8
:101FE0007023002010B5024B5B690520984710BD97
:101FF0007023002010B51C20044B9847041E03D00A
:10200000002308C0024B9847200010BD8522000025
:10201000FB220000F0B5D6464F464646C0B5040048
:102020000D00002803D00B0E03D072B6FEE772B687
:10203000FEE706000C361F4B9847206923681D43B6
:10204000256086422AD000258023DB049846802321
:102050005B049A460FE0236813409B1A5F425F417E
:102060003B0014E08021890423681943124B9847F0
:1020700048464E4513D04368994601680A02120A41
:1020800043461942E7D1236813405F1EBB41002B32
:10209000EED053461942E5D01543E3E70025236807
:1020A000AB432360054B984720681CBC904699467B
:1020B000A246F0BDB92F0000BD330000F53000008E
:1020C00082B000230193064B1B68013301D072B626
:1020D000FEE772B6019B002BFCD002B07047C046F1
:1020E00004000020000000000000000000000000CC
:1020F0000B4A13681868203080F30988022080F3A7
:102100001488BFF36F8F3FBCAE4608BC04BC62B6F8
:102110001847C046C046C046C046C046C046C04636
:102120009053002010B5031F802464041C60043BFE
:102130001960043B02491960143B1A60403810BD15
:10214000C12000007047000010B50F4B1968FF2236
:1021500012040A431A601968FF2212060A431A6021
:102160000A4A002313600A490B600A480A490860BA
:1021700007211160094A1360094B9847094B98479A
:10218000094B9847002010BD20ED00E010E000E072
:1021900018E000E03F1F000014E000E00400002011
:1021A000F120000035320000C120000080225205DD
:1021B000034B1A60BFF34F8FBFF36F8F7047C0465A
:1021C00004ED00E072B6044A136801331360BFF3F4
:1021D0004F8FBFF36F8F704704000020064B1B68C2
:1021E000002B01D172B6FEE7013B034A1360002BBE
:1021F00000D162B67047C04604000020EFF31080A3
:1022000072B6704780F3108870470000000000002D
:10221000EFF309800E4B1A6820381060F0C0444676
:102220004D4656465F46F0C008B572B601F002F85A
:1022300062B60CBC116808681030F0C8A046A94608
:10224000B246BB4680F309882038F0C81847C0461C
:102250009053002010B5074B98470400064B984751
:10226000002803D080225205044B1A602000044B42
:10227000984710BDFD210000D52F000004ED00E0BF
:102280000522000070B50400430702D007239C43D9
:102290000834114B9847114B1B68002B10D0104B82
:1022A0001B68E4180F4A944211D8A34211D20B4A7A
:1022B0001568ED180A4B1C600B4B9847280070BD41
:1022C00007220A4B08339343044A1360E7E70025CB
:1022D000F2E70025F0E7C046B92F00008823002070
:1022E0008C530020F72F0000F53000008C230020D5
:1022F000002801D072B6FEE7704703000833436040
:10230000012252428260C360036100230360704770
:1023100000230361704743684B609A688A609A683B
:10232000516099600861036801330360704730B5FC
:102330000C6802000832631C02D1026904E01A0032
:1023400053681D68AC42FAD253684B6099608A604A
:102350005160086103680133036030BD036942685E
:10236000816891608268416851605A68904206D0E5
:10237000002202611A68013A1A6018687047826880
:102380005A60F5E710B50400034B9847A46B034B64
:1023900098476042604110BDC5210000DD2100006A
:1023A00070B504001600856B026C002A0BD100206A
:1023B0002368834204D16068164B9847002363600A
:1023C0000135A56370BD002E0ED18068124B984771
:1023D000A368226C94466344A36000206268934221
:1023E000EED32368A360EBE7C0680B4B9847236CE0
:1023F0005B42E268D218E26021688A4203D26268D6
:1024000094466344E3600020022ED9D18542D7D0A0
:10241000013DD5E781350000614C000070B582B008
:1024200001900A00846C002C05D0A16BE36B9942EB
:1024300003D372B6FEE772B6FEE7A16B00268B42AD
:1024400002D8300002B070BD4523E55C6DB201A931
:1024500020000A4B984706006B1C0AD1636A002BC8
:10246000EFD020002430064B98470028E9D0012601
:10247000E7E701356DB24523E554E2E7A12300000B
:102480003533000010B50C00026C002A0BD0C36875
:102490009B18C36041688B4201D30368C360C16865
:1024A0002000014B984710BD614C0000F8B50700B3
:1024B000254B98474523FC5C64B2002C1CDD234E61
:1024C000234D0BE07B6A002B16D038002430A84740
:1024D00000280ED1013C64B2002C0DD0BB6C002B47
:1024E000F0D000213800B0470028F3D0194B9847AE
:1024F000F0E7184B9847EDE7FF224523FA54164BB7
:102500009847114B98474423FC5C64B2002C14DDBF
:102510003B69002B11D03D0010350D4E06E0013C0B
:1025200064B2002C09D03B69002B06D02800B047CC
:102530000028F4D0074B9847F1E7FF224423FA54D0
:10254000054B9847F8BDC046C52100001D2400007A
:1025500035330000BD340000DD21000070B50400FB
:102560000D00002821D0174B98472268216CE36B9F
:102570004B43D01860600020A063A2605B1AD318A0
:10258000E360FF234422A3540132A354002D11D150
:102590002369002B05D0200010300B4B98470028F2
:1025A00005D10A4B9847012070BD72B6FEE7084B73
:1025B0009847F6E720001030064DA8472000243049
:1025C000A847EEE7C521000035330000DD210000FB
:1025D000AD210000FB220000F8B506000D00170039
:1025E000002801D172B6FEE70800704354300B4B4F
:1025F0009847041E10D0002D03D00300543303600D
:1026000000E02060E663256401212000044B984728
:102610005023E7540023A3642000F8BD8522000066
:102620005D250000F0B5CE46474680B585B0040074
:102630000F0001921D0000280CD000290CD0022DA3
:102640000FD04E4B9847002810D1019B002B11D082
:1026500072B6FEE772B6FEE7036C002BEFD072B6DF
:10266000FEE7E36B012BECD072B6FEE70026444B8D
:1026700098464CE00026FAE72A0039002000414B3A
:102680009847A36C002B0FD0290020003E4B9847A1
:10269000002801D03D4B98473D4B9847012005B09D
:1026A0000CBC90469946F0BD636A002B08D0200010
:1026B0002430384B98470028EED0344B9847EBE74E
:1026C0000028E9D0314B9847E6E7314B9847002086
:1026D000E5E72F4B984701A902A82F4B9847002800
:1026E00044D1274B9847A36B9946E66B284B9847F4
:1026F000B14535D1200010300199284B9847200072
:10270000274B9847274B9847002826D00126C047DB
:10271000A36BE26B9342AFD3022DADD0019B002B94
:10272000D3D0002E02D102A81F4B9847184B9847D0
:102730001E4B9847124B98474423E35C5BB201332E
:1027400002D100224423E2544523E35C5BB201330F
:10275000BFD100224523E254BBE70C4B9847D5E795
:1027600020000F4B98470F4B9847CFE720000C4BAA
:1027700098470C4B9847002091E7C046C9340000A9
:10278000C5210000A12300001D240000AD21000090
:10279000DD210000353300004D340000D13200004F
:1027A000AD240000F530000035340000B92F0000E2
:1027B00070B5020000210120064B9847041E07D087
:1027C000002343600360C36000220021024DA8473C
:1027D000200070BDD925000025260000F0B583B08B
:1027E0000400019116001D00002812D0019B002B4F
:1027F00011D0022D14D0284B98470090A36BE26BA8
:102800009A422FD800250098244B9847280003B0FF
:10281000F0BD72B6FEE7036C002BEAD072B6FEE79D
:10282000E36B012B1AD072B6FEE7636A0125002B19
:10283000E9D0200024301A4B98470028E3D0002E1E
:102840000AD001233360DEE77B1C5BB24522A35430
:102850000125D8E70125D6E70125D4E70E4B984797
:102860000090A36B4523E75C7FB22A00019920000A
:102870000C4B98477B1CE7D1A36C002BD5D02900CB
:102880002000094B984701250028BCD0002EE1D03C
:1028900001233360B7E7C046FD2100000522000098
:1028A00035330000A12300001D240000F0B5C6460A
:1028B00000B584B004000F00019200280AD000295E
:1028C0000AD0424B984700280BD1019B002B0CD01B
:1028D00072B6FEE772B6FEE7036C002BF1D072B65B
:1028E000FEE700263A4B98462FE00026FAE739002B
:1028F0002000384B9847013DA5632369002B07D082
:1029000020001030344B9847002801D0334B9847B3
:10291000334B9847012004B004BC9046F0BD304BC7
:1029200098470020F7E702A82E4B984716E00022B0
:102930004423E2541DE000224523E2541EE020001F
:10294000294B9847294B98470126C047A56B002D76
:10295000CDD1019B002BE2D0002EE4D0204B984734
:10296000234B98471A4B98474423E35C5BB20133EF
:10297000DDD04523E35C5BB20133DCD0184B9847D4
:1029800001A902A81B4B9847002813D120001A4B1D
:1029900098470028D3D0200024300199174B98473E
:1029A0002000114B9847114B98470028CCD10B4B76
:1029B0009847C9E720000C4B98470C4B98472000DC
:1029C0000D4B98470028BFD00020A4E7C934000071
:1029D000C52100008524000035330000AD21000032
:1029E000DD21000035340000AD240000F53000008A
:1029F000B92F00004D34000085230000D1320000C3
:102A0000F0B585B0041E019104D0036C002B03D0F7
:102A100072B6FEE772B6FEE7504B9847002804D125
:102A2000019B002B05D072B6FEE7002500264C4F17
:102A300048E000250026FAE7013BA3632368002B4A
:102A400002D1484B984760602369002B07D02000D3
:102A50001030454B9847002801D0444B9847444BD1
:102A600098470125280005B0F0BD002D01D072B6B1
:102A7000FEE73F4B9847F5E702A83E4B98472AE010
:102A800000224423E25431E000224523E25432E0A4
:102A9000334B98476068384B98470500344B98474C
:102AA00039E02000354B9847354B984709E0200026
:102AB000324B9847324B98472000324B98470028BA
:102AC00038D10126B847A36B002BB5D1019B002B51
:102AD000CBD0002ED0D0264B98472B4B9847204B7D
:102AE00098474423E35C5BB20133C9D04523E35CE0
:102AF0005BB20133C8D01E4B984701A902A8234BF3
:102B000098470028D3D120001E4B98470028C8D0F2
:102B10002368002BBCD02000243001991C4B98471F
:102B20002000164B9847164B98470028C9D10F4BE9
:102B30009847C6E7002D00D194E7094B9847636A90
:102B40000021002B03D0236B1B680531C91A606874
:102B5000104B9847064B9847002583E7C93400007F
:102B6000C52100008936000035330000AD2100008A
:102B7000DD21000035340000E9340000AD24000000
:102B8000F530000085230000B92F00004D3400000F
:102B9000D1320000FD35000010B50A4B1B68002B38
:102BA00009D00123074CDA00A258002A04D00133CF
:102BB000082BF8D110BD0023024ADB009950D3182E
:102BC0005860F7E70056002070B504000D001600AD
:102BD000114B98474423E35C5BB201330DD045238E
:102BE000E35C5BB201330CD00C4B9847A36B002B1A
:102BF0000BD020000A4B984770BD00224423E254BA
:102C0000EDE700224523E254EEE7200024303200B5
:102C10002900044B9847ECE7C5210000DD210000A6
:102C2000AD240000FD320000084B1B681B68002B20
:102C300007D0064B1B68DB68DB685A68044B1A60D8
:102C4000704701225242024B1A60F9E79453002068
:102C500044540020F0B5D6464F464646C0B5144B06
:102C60009946144B9846144F144B9A464B461B6892
:102C7000002B16D0C047FB68DD68281DD047104ADE
:102C80001368013B13600A4C2368013B23600D4B22
:102C90009847286B0C4EB0472800B0472368002B9C
:102CA000E8D10A4B1B68012BE0D9094B9847DDE7B7
:102CB00004540020C5210000785400205D2300004A
:102CC00000540020DD210000F12200009C53002070
:102CD000AD21000070B504000D00174B1E68174BA6
:102CE00018680430164B9847631C13D03419134BE3
:102CF0001B685C60A64216D8124B18680F4B196807
:102D00000431114B9847114B1B689C4212D20F4B58
:102D10001C600FE0002DE9D0084B196804310C4805
:102D20000C4B984706E00C4B1868044B19680431AB
:102D3000054B984770BDC0468C540020905300202E
:102D40005D230000945300202F23000044540020F2
:102D5000645400201723000098530020F0B5C646A5
:102D600000B584B001900D000293970038005F4BCE
:102D70009847061E00D189E058205C4B9847041EF6
:102D800000D180E006633A00A5213000584B9847F7
:102D90003A1F236B9C46624407239A4390462A7845
:102DA0002D33E2542B78002B0DD001352300353321
:102DB00020003E302A781A702A78002A03D0013584
:102DC00001338342F6D100223D23E2540A9F042FAF
:102DD00000D90427E762A7640026E664231D039355
:102DE0001800444DA84720001830A8472461052347
:102DF000DB1BA361646226655423E654029A0199A1
:102E000040463D4B984720600B9B002B00D01C6038
:102E10003A4B98473A4A136801331360394B1B68A1
:102E2000002B36D0384B1B68002B07D1354B1B6865
:102E3000DB6AE26A934201D8324B1C60334A136862
:102E4000013313602364E36A314A1268934201D963
:102E50002F4A13609800C01880002E4B1818039951
:102E60002D4B98472D4B9847274B1B680120002B73
:102E700005D0244B1B68DA6AE36A9A4231D304B066
:102E800004BC9046F0BD3000254B984701204042DD
:102E9000F5E71C4B1C601368012BCFD11D4F380088
:102EA000204EB04738001430B04738002830B047C3
:102EB00038003C30B04738005030B0471A4B984685
:102EC0001800B047194F3800B0471948B0471948A3
:102ED000B0471948B047194B42461A60184B1F605B
:102EE000ACE7184B98470120C9E7C046852200008F
:102EF000734C00001123000025210000C5210000B3
:102F000000540020905300206054002010540020F2
:102F1000145400209C53002017230000DD210000E2
:102F2000F1220000FB220000185400202C54002045
:102F30004C54002078540020645400209453002006
:102F400098530020AD21000010B582B0114B0193C1
:102F500000230093822252000F491048104CA047D2
:102F6000012803D0431C13D002B010BD0D4B98476D
:102F70000128F7D172B6012252420B4B1A6002327D
:102F80000A4B1A6000220A4B1A600A4B9847EBE77B
:102F900072B6FEE740540020CC570000552C0000CC
:102FA0005D2D00005D370000445400206054002077
:102FB0008C54002049210000024A13680133136039
:102FC0007047C0460C540020014B18687047C0463B
:102FD0008C540020F0B583B0384B1B68002B60D1B7
:102FE000374B1D6801351D60002D12D1354B1B6814
:102FF0001B68002B01D072B6FEE7324A1168324BD3
:10300000186810601960314A136801331360304B3F
:103010009847304B1B6800249D4233D30024294F2E
:103020003B681B68002B29D0264B1B68DB68DE68D9
:1030300073689D4232D3331D01931800264B984785
:10304000B36A002B03D030001830234B9847F36A43
:10305000224A1268934201D9204A13609800C0188E
:1030600080001F4B181801991E4B98471E4B1B6878
:10307000F26ADB6A9A42D3D30124D1E70122524299
:10308000144B1A60184B1B68DA6A93009B189B005C
:10309000134A9B58012B09D9012407E00D4A1360FC
:1030A000F0E7124A1368013313600024104B1B68C9
:1030B000002B00D00124200003B0F0BD0C540020F0
:1030C0008C54002094530020985300204854002032
:1030D000292C0000445400205D23000014540020DB
:1030E0009C53002017230000905300200854002018
:1030F00090540020F8B5304B1B68002B01D172B6FC
:10310000FEE72E4B98472C4B1A68013A1A601B6851
:103110000024002B03D12A4B1B68002B03D1294B21
:1031200098472000F8BD284D2F002B68002B22D097
:10313000FB68DC6820001830244B9847261D3000BF
:10314000224B9847E36A224A1268934201D9204AE7
:1031500013609800C01880001E4B181831001E4BD9
:1031600098471E4B1B68DB6AE26A9A42DDD3012254
:103170001B4B1A60D9E7002C01D01A4B98471A4B09
:103180001C68002C0ED0194F154E012502E0013CA1
:10319000002C04D0B8470028F9D03560F7E70022AA
:1031A000114B1A600E4B1B680024002BB7D0104B3C
:1031B00098470134B3E7C0460C540020C5210000F5
:1031C00000540020DD2100004C5400205D2300004D
:1031D000145400209C53002017230000905300201B
:1031E00090540020292C000008540020D52F000006
:1031F000AD21000010B5041E0FD0094B1B68002B39
:1032000001D072B6FEE7074B984700212000064B1D
:103210009847064B9847002801D1054B984710BDA9
:103220000C540020B92F0000D52C0000F530000010
:10323000AD21000010B5214B1B68002B18D10022D6
:103240001F4B1A601F4B1B689A00D21892001E4930
:103250005258002A10D1002B08D0013B9A00D218F6
:1032600092005258002A07D1002BF6D172B6FEE721
:103270000122134B1A6010BD13489A00D11889001F
:1032800041184C6864684C60D21892000832821869
:1032900094420BD09A00D21892000B498A185268B7
:1032A000D1680A4A1160074A1360E4E760689A002F
:1032B000D218920004498A185060EBE70C540020A1
:1032C00090540020145400209C5300209053002060
:1032D00010B50C00002801D172B6FEE7044B196846
:1032E0001831044B984701212000034B984710BD2B
:1032F000905300202F230000D52C000070B50C0047
:10330000150000280DD0084B19681831074B984755
:10331000002D01D00124644229002000044B98476D
:1033200070BD72B6FEE7C046905300201723000020
:10333000D52C000070B5C368DC68002C27D02500B0
:1033400018352800154B9847154B1B68002B20D1CA
:10335000251D2800114B9847E36A124A12689342D0
:1033600001D9104A13609800C01880000E4B18183D
:1033700029000E4B98470E4B1B68E26ADB6A00205F
:103380009A4203D901220B4B1A60013070BD72B60C
:10339000FEE729000848054B9847ECE75D2300004D
:1033A0000C540020145400209C53002017230000CC
:1033B00090530020905400204C54002070B5164BC0
:1033C0001B68002B01D172B6FEE780231B06194350
:1033D0000160C568002D1DD0104EB0472C1D200087
:1033E000B047EB6A0E4A1268934201D90C4A136047
:1033F0009800C01880000B4B181821000A4B984702
:103400000A4B1B68EA6ADB6A9A4202D90122084B1E
:103410001A6070BD72B6FEE70C5400205D230000F8
:10342000145400209C5300201723000090530020C8
:1034300090540020034B1B680360034B1B684360E0
:103440007047C046485400208C54002070B50600D8
:103450000D0000281BD000291BD0134B9847134B9D
:103460001A6871682B68581C1CD0114800683468B1
:10347000844202D001248A4205D2521A9A420AD3C7
:1034800000232B6001240B4B9847200070BD72B6BF
:10349000FEE772B6FEE79B1A2B603000064B98479A
:1034A0000024F0E70024EEE7C52100008C54002042
:1034B00048540020DD210000353400000122014B7A
:1034C0001A60704790540020054B1B680120002BA8
:1034D00004D0044B18684342584140007047C0462E
:1034E000605400200C54002070B5041E3CD0C26A09
:1034F0001E4B1B68DB6A9A422ED28369002B05DBC8
:103500001A4B1B68D96A05235B1A836193009B18C9
:103510009B00174AD31862699A4205D0134B1B6867
:10352000DB6AE36201201EE0251D2800114B98474D
:103530000E4B1B68DB6AE3620F4A1268934201D9A3
:103540000D4A13609800C0188000094B1818290014
:103550000A4B9847012006E0044B1B68806CDB6A2D
:1035600098428041404270BD0020FCE7905300200B
:103570009C5300205D2300001454002017230000FA
:1035800070B5041E2CD0184B1B68984201D072B63F
:10359000FEE7C36C002B01D172B6FEE7013BC364AA
:1035A000C26A816C8A421DD00020002B17D1251DD4
:1035B00028000E4B9847A36CE3620522D21AA26141
:1035C0000B4A1268934201D9094A13609A00D31832
:1035D0009B000848C0182900074B9847012070BD80
:1035E0000020FCE70020FAE7905300205D23000054
:1035F000145400209C5300201723000070B5041EB3
:103600000DD0C36C002B01D172B6FEE7826C8A42EA
:1036100000D20A00E16A914201D0012B00D070BDB6
:10362000144B1B689C4201D172B6FEE7E262A369AB
:10363000002B02DB05239A1AA2618B005B189B000A
:103640000D4AD31862699A42E9D1251D28000B4B17
:103650009847E36A0A4A1268934201D9084A1360FC
:103660009800C0188000044B18182900054B984793
:10367000D5E7C046905300209C5300205D230000F6
:103680001454002017230000054B1B68002B04D0A6
:10369000034B1A68D36C0133D364014B186870472D
:1036A0009053002010B54160006191420BD8D21AAE
:1036B000012483699A4211D2011D094B1868094BF4
:1036C000984700240AE09A4202D20124994205D286
:1036D000011D054B1868034B98470024200010BDBE
:1036E000985400202F2300009454002070B5104BF4
:1036F0009847104B1B68002B02D00F4B984770BDAA
:103700000E4D28000E4EB0470E4C2000B0470E4B19
:103710001D600E4B1C600022102105200C4B9847A9
:10372000044B18600028E8D00A490B4B9847E4E79F
:10373000C5210000C8540020DD2100009C54002059
:10374000FB220000B0540020945400209854002024
:10375000D9250000FC570000992B000010B582B05D
:103760000B4B98470B4B1B68002B0ED00A4B019359
:103770000423009300238222920008490848094C40
:10378000A047002801D002B010BD72B6FEE7C046C7
:10379000ED360000C8540020CC540020045800002E
:1037A000CD3800005D2D000030B585B004001D004F
:1037B000002814D0134B1868002821D000910192E2
:1037C0000294052915DC104B9847022809D00D4BAF
:1037D00018680023002269460C4CA0470EE072B620
:1037E000FEE7084B18680023089A6946074CA04773
:1037F00004E000232A006946054CA04705B030BD0F
:103800000020FBE7C8540020C93400002526000032
:10381000DD270000F0B5D6464F464646C0B582B01B
:103820008046234B98478246224B1B68984217D309
:103830000023424613601F4B52461A60504602B0A6
:103840001CBC90469946A246F0BD002300933A0066
:1038500000212000184CA047002804D172B6FEE7D2
:10386000164D174B99462B681A68002A17D0DB684B
:103870001F68DC68261D3000C8472000636A98472F
:10388000E369012BEFD1A369FB189F42DDD263608E
:1038900024610A4B186831000A4B9847E3E70A4A4B
:1038A0000649106808601360012342461360C2E7AE
:1038B000C92F0000C4540020A937000094540020F0
:1038C0005D2300002F23000098540020F0B58DB038
:1038D0005A4B98475A4F5B4B1B681A68002A0ED008
:1038E000DB681C68584B984708A8584B9847050058
:1038F000089B002B46D184421DD900220FE0524B79
:10390000984708A8514B98470500089B002B39D1D0
:103910004F4B1B681B685A425A41D2B20024611BAC
:103920004C4B18684C4B98474C4B9847002826D076
:10393000484D4B4C36E0494B9847424B1B68DB687F
:10394000DE68301D3E4B9847F369012B03D0736A44
:1039500030009847ECE7B369E11823002A003000F3
:10396000404DA8470028F2D00023009322000021F8
:1039700030003D4CA0470028E9D172B6FEE73B4B32
:103980009847D5E7354B9847D2E70B9B03930A9BA3
:103990000493099B0593039904989847089B039304
:1039A000002B09DA002208A92868A047002892D035
:1039B000089B0393002BE8DB0A9E7369002B01D060
:1039C000301DB84707A8214B9847089B092BE9D819
:1039D0009B00274AD3589F46099BB269944663448B
:1039E0001900099B020030001E4CA0470028A0D0FF
:1039F0003000736A9847F369012B9AD1099BB1692A
:103A00008C4663441A000023009300213000164CBA
:103A1000A04700288DD172B6FEE70999B16100294F
:103A200006D041180300020030000E4CA04780E78A
:103A300072B6FEE730000F4B98477AE7590A00004C
:103A40005D23000094540020B92F000015380000B9
:103A500098540020C8540020C92B0000F530000005
:103A6000AD280000A5360000A9370000AD210000F8
:103A7000D4570000F12200000C4B1B68002B06D12C
:103A8000EFF31083002B07D00022094B1A70074A6E
:103A9000136801331360704772B6BFF35F8F002263
:103AA000044B1A700132024B1A70F0E7D054002018
:103AB000D454002008000020084B1A68013A1A600C
:103AC0001B68002B09D1064B1B78002B05D0012267
:103AD000044B1A70BFF35F8F62B67047D05400205A
:103AE000D454002008000020F0B583B001AC0125BB
:103AF00065700027A770257021000E20064EB04784
:103B00008022D201054B9A612770657021000F2039
:103B1000B04703B0F0BDC046213B00000044004167
:103B200000B583B001AB80221A700A785A704A78C7
:103B30009A708A78DA701900014B984703B000BD7B
:103B40004941000010B5072803D88000164B1B58C8
:103B50009F46002027E0154BD86824E0144B1B6AD1
:103B60009B059B0F1348D8401DE0104B18691AE0C5
:103B70000E4B1B6800209B0715D50D491022CB6802
:103B80001A42FCD0094B1B685B0701D40A480AE0C3
:103B900000200A4B9847054B9B681B041B0C58439D
:103BA00001E08020000210BD0C580000D854002015
:103BB0000008004000127A00006CDC026D4000003A
:103BC00070B50C490B6A0478857840780122104062
:103BD00080014026B34303432A40D201802083431F
:103BE00013430322224012020348034013430B6293
:103BF00070BDC04600080040FFFCFFFFF0B5CE4698
:103C0000474680B5194B99469B6941788C460578A3
:103C10000679C77844798078012108408000042221
:103C20009343034360460840C00004329343034378
:103C30003800084080014027BB4303433000084060
:103C4000C0018026B3430343072005402D020848E6
:103C500003402B4321400903064803400B434A46D7
:103C600093610CBC90469946F0BDC04600080040E8
:103C7000FFF8FFFFFFEFFFFF072803D880001E4B70
:103C80001B589F46172036E01C4A136A02210B433B
:103C9000136200202FE0194A936902210B439361BC
:103CA000002028E0154A138A02210B4313820020CA
:103CB00021E0124A938A02210B43938200201AE0EA
:103CC0000F4B1A6802210A431A601B680D4A134001
:103CD0000A4A938411001022CB681A42FCD0084A89
:103CE0009168064BD96251689962126892B29A84BF
:103CF000002000E0002070472C5800000008004021
:103D0000D85400207FFF0000F0B5C64600B586B04D
:103D1000C222D200344B9A60344A53681E218B432E
:103D2000536001236A4613700024314DE0B26946A6
:103D3000A84701341C2CF9D12E4B1B68DB042A49FF
:103D40008A695B0E1B042C48024013438B6104A854
:103D50000125457085700024C47005710723037028
:103D60004471264B98470420254EB04703A8447061
:103D700085700470234B98470620B047224B984724
:103D800001956B465C70062398466B4642461A7056
:103D90001C725C72694603201C4FB84703201C4EFE
:103DA000B0476B465C701C725C7204236A461370E9
:103DB000FC33019369460420B8470420B047154BF3
:103DC0001C725C729C72DC7201956B465C704246A0
:103DD0001A701C725C7269460020B8470020B04718
:103DE00006B004BC9046F0BD000800400040004111
:103DF0005140000024608000FFFF80FFFD3B000079
:103E0000793C0000C13B0000193E00003D3E00002F
:103E1000F53E000000040040064A936908210B4368
:103E200093610122044B1A7019000B781342FCD1E4
:103E30007047C04600040040000C004070B506000A
:103E400004000D782D0205434B78002B02D080230F
:103E5000DB021D434B7A002B02D080231B031D4342
:103E60004868012810D9431E184234D1022830D99D
:103E70000223002201325B009842FBD81202324337
:103E8000140080235B031D430B7A002B02D0802398
:103E90009B031D43134A53785BB2002BFBDB124B91
:103EA0009847124B1E700F4A53785BB2002BFBDB16
:103EB0000C4B9C601A0053785BB2002BFBDB094A69
:103EC0005368802149020B401D435560084B9847B9
:103ED00070BD0022D2E70402344380239B021D43BD
:103EE000D2E7C046000C0040793A0000080C0040C0
:103EF000B93A000010B504000B4A53785BB2002BAE
:103F0000FBDB0A4B98470A4B1C70074A53785BB29D
:103F1000002BFBDB044A516880235B020B43536098
:103F2000044B984710BDC046000C0040793A000091
:103F3000040C0040B93A000070B504001A4A5378E6
:103F40005BB2002BFBDB194B9847194B1C70164AD0
:103F500053785BB2002BFBDB134E7068C004C00EBD
:103F6000144B98470500124B1C707668F602F60F4A
:103F7000114B1C700C4A53785BB2002BFBDB0A4BD5
:103F80009C682402240C0D4B9847002E07D1012C6D
:103F900007D9210028000A4B9847050001E00134A9
:103FA000E540280070BDC046000C0040793A000092
:103FB000040C0040453B0000080C0040B93A0000EA
:103FC0009142000010B50400064B9847064B1C7048
:103FD000064A53888021C9010B435380044B9847FC
:103FE00010BDC046793A0000020C0040000C0040B1
:103FF000B93A000010B504000F4B98470F4B1C70E6
:104000000F4A53881B05180F53880E490B405380E5
:1040100053880D490B40538011008022D2014B88F8
:104020001342FCD106494A88030206480240134362
:104030004B80064B984710BD793A0000020C0040B7
:10404000000C0040FFF0FFFFFFBFFFFFB93A000088
:1040500010B50C7824020443024B9847A4B2024BDB
:104060005C8010BDF53F0000000C004010B504005E
:10407000064B9847064B1C70064B5C882405240FA2
:10408000054B98472000054B984710BD793A000032
:10409000020C0040000C0040B93A0000393F00001B
:1040A00030B5D378002B35D11378802B29D01B065F
:1040B00080246402234354780225AC4306D19478CB
:1040C000002C20D18024A402234341605478013C79
:1040D000012C1CD90D042D0CA024E4052C431C43F9
:1040E00084620D0CD02424062C431C438462D478B3
:1040F000002C22D15B031CD59378012B1ED041618B
:1041000017E00023D7E7C024E4022343DDE70D4C8A
:104110002340DFE741600C04240CA023DB0523438C
:1041200083620C0CD0231B0623438362D378002BBD
:1041300003D15378013B012B02D930BD8161F8E7EF
:104140008160FAE7FFFFFBFF10B50A00C1090023F9
:10415000002904D14309DB0105498C4663441F242F
:104160002040012181401800024B984710BDC046F5
:1041700000440041A14000007047000010B5054B0D
:104180009847054B9847054B9847054B9847054B73
:10419000984710BD093D0000E93A00007941000050
:1041A0007941000079410000FEE7000010B51A4A8D
:1041B0001A4B9A4211D01A00194B9A420DD2194A41
:1041C00003339B1A9B0801339B00002213481249BA
:1041D0008C58845004329A42FAD1134A134B9A42B3
:1041E0000AD2D34311495B1803218B4304339B1834
:1041F000002102C29342FCD10D4AFF210D4B8B439B
:1042000093600D4A53687F390B4353600B4B9847BB
:104210000B4B9847FEE7C0464059000000000020C5
:104220007000002004000020700000204456002090
:1042300000ED00E00000000000400041194C0000CB
:10424000694200000300064A1268002A04D0044AAA
:104250001068C318136070470249014A1160F6E7FD
:10426000EC5400204876002010B5054B9847054BCC
:104270009847054B9847054B9847002010BDC0460E
:10428000A503000075040000B9060000F509000050
:10429000002243088B4274D303098B425FD3030A85
:1042A0008B4244D3030B8B4228D3030C8B420DD398
:1042B000FF22090212BA030C8B4202D31212090226
:1042C00065D0030B8B4219D300E0090AC30B8B4264
:1042D00001D3CB03C01A5241830B8B4201D38B0312
:1042E000C01A5241430B8B4201D34B03C01A5241B7
:1042F000030B8B4201D30B03C01A5241C30A8B42FA
:1043000001D3CB02C01A5241830A8B4201D38B02E4
:10431000C01A5241430A8B4201D34B02C01A524188
:10432000030A8B4201D30B02C01A5241CDD2C309FA
:104330008B4201D3CB01C01A524183098B4201D376
:104340008B01C01A524143098B4201D34B01C01A61
:10435000524103098B4201D30B01C01A5241C308D9
:104360008B4201D3CB00C01A524183088B4201D348
:104370008B00C01A524143088B4201D34B00C01A34
:104380005241411A00D20146524110467047FFE7A0
:1043900001B5002000F0F0F802BDC0460029F7D0BA
:1043A00076E7704703460B437FD4002243088B42D5
:1043B00074D303098B425FD3030A8B4244D3030BAC
:1043C0008B4228D3030C8B420DD3FF22090212BA71
:1043D000030C8B4202D31212090265D0030B8B42ED
:1043E00019D300E0090AC30B8B4201D3CB03C01AD7
:1043F0005241830B8B4201D38B03C01A5241430BB2
:104400008B4201D34B03C01A5241030B8B4201D3A1
:104410000B03C01A5241C30A8B4201D3CB02C01A0C
:104420005241830A8B4201D38B02C01A5241430A84
:104430008B4201D34B02C01A5241030A8B4201D373
:104440000B02C01A5241CDD2C3098B4201D3CB011A
:10445000C01A524183098B4201D38B01C01A5241C9
:1044600043098B4201D34B01C01A524103098B42CD
:1044700001D30B01C01A5241C3088B4201D3CB00B8
:10448000C01A524183088B4201D38B00C01A52419B
:1044900043088B4201D34B00C01A5241411A00D24B
:1044A00001465241104670475DE0CA0F00D04942B4
:1044B000031000D34042534000229C4603098B4224
:1044C0002DD3030A8B4212D3FC22890112BA030AAC
:1044D0008B420CD3890192118B4208D3890192112E
:1044E0008B4204D389013AD0921100E08909C309B3
:1044F0008B4201D3CB01C01A524183098B4201D3B5
:104500008B01C01A524143098B4201D34B01C01A9F
:10451000524103098B4201D30B01C01A5241C30817
:104520008B4201D3CB00C01A524183088B4201D386
:104530008B00C01A5241D9D243088B4201D34B00A1
:10454000C01A5241411A00D20146634652415B10E3
:10455000104601D34042002B00D5494270476346C4
:104560005B1000D3404201B5002000F005F802BD09
:104570000029F8D016E770477047C046F0B5CE4620
:10458000474615042D0C2E0080B50704140C3F0C73
:104590009946030C7E435D43674363437F19340CA4
:1045A000E4199C46A54203D980235B029846C44483
:1045B0004B46514343433604360C250C24046544D2
:1045C000A4195918491920000CBC90469946F0BD11
:1045D000F0B557464546DE464E46E0B50C039846D4
:1045E0004E00230B87B0070092469B46760DCD0FF9
:1045F000002E6BD06D4B9E4235D080245B46420F1F
:104600002404DB0014431C43C3009946684BA346B3
:104610009C46002300276644029343461C035A002D
:10462000DB0F5046240B520D984600D176E05F4BCD
:104630009A426DD08023410F1B040B435C49E40078
:104640008C461C43C300002062444146B6186940B2
:10465000721C0191944607430F2F00D9B0E0554AD0
:10466000BF00D25997465B460343994600D087E086
:1046700000239B46023308270293CEE7424601926D
:10468000022867D0032800D10EE2012800D062E1A1
:10469000002300240022994601990140CDB2002157
:1046A00012030B0D120B1B051343434A2405134041
:1046B0001C436400ED0764082C434846210007B002
:1046C0003CBC90469946A246AB46F0BD0343994692
:1046D0004FD05B46002B00D189E1584600F07EFAAE
:1046E00003000B3B1C2B00DD7AE11D22D31A3A009C
:1046F00001005C46DA4008398C4013008F402343A8
:104700009B46B94600232D4E0027361A029384E7B4
:10471000534623432AD10024022096E753462343DD
:1047200020D0002C00D157E1200000F057FA030000
:104730000B3B1C2B00DD49E11D21CB1A5146020029
:10474000D9405346083A944093400C431B4A121AEE
:1047500000207AE70125019B144C1D400023002214
:1047600099469CE70024002201206EE7534603206F
:104770006BE700239B4601330427002602934CE796
:10478000032381460C27029347E78022002300255C
:1047900012039946054C82E75C464B4602986FE748
:1047A0005C464B46019502986AE7C046FF07000049
:1047B00001FCFFFF4C580000FFFF0F800DFCFFFFC6
:1047C0004A464946170C1A0C1B041B0C0804190016
:1047D000000C41431500884619007D437943039539
:1047E00089462900150045434D44029545462D0C48
:1047F000AA46029D5544A94506D98A468021490208
:104800008946CA4451460391290C04914146090442
:104810002D04090C88462900250C24044144240C4D
:104820000591210041438846210079438A46684327
:10483000414650448146080C48446F43824503D9A1
:104840008021490289464F44010C89463900494478
:10485000029141460F0404993F0C88460004C01998
:1048600080444146049159460F0C0904090C8846BE
:1048700059438A4639005143894641464A43514685
:10488000090C8B467B43D2185A44934203D98023A8
:104890005B029B46D94451460904090C8A464146AD
:1048A00061437C43130C12044B445244A1468A4694
:1048B0003C0041466C434D4351464D440F0C7D191D
:1048C000A94503D98021490288464444049F03999D
:1048D000B84641448B468345804141428846514613
:1048E00008042F04000C3F185846029910188946F6
:1048F000904292414F44BA46524299469346C2442E
:10490000D144CB448F42BF41C245894199459B4127
:10491000934592417F4249422D0C52420F435B42E4
:1049200013437F19FF185B463C19DB0D059A64029F
:104930001C43430213435D1EAB415A46C00D034363
:1049400052021343E20156D501205A080340134393
:10495000E207134364085A48604400284DDD5A07B3
:1049600009D00F221A40042A05D01A1D9A429B41F1
:104970005B42E4181300E20104D58020514AC000D4
:1049800014406044504A904200DDE3E60125DB0814
:1049900062071A436402019B9146220B4405640D91
:1049A0001D407CE6802259461203114208D0144271
:1049B00006D122431203120B45469946434C6EE63C
:1049C0005B461A431203120B404C68E60300544640
:1049D000283B9C400023B9E600F000F92030A6E611
:1049E0000300283B9F400023BB4699468AE600F01F
:1049F000F5F8203074E6B446ADE701252A1A382AC6
:104A000006DD019B00241D4000230022994646E656
:104A10001F2A21DC20252000AD1A1E00AB40A84033
:104A2000D6405D1EAB4130431843D440430709D004
:104A30000F230340042B05D00300181D98429B410F
:104A40005B42E418230221D50125019B01241D406E
:104A500000230022994622E61F2521006D42281AD4
:104A6000C1400800202A1DD05F35AA1A9440234374
:104A70005C1EA341072503431D400022002D09D0E1
:104A80000F2200241A401800042AD6D1030065071B
:104A90006402220BDB082B4301259946019B00246D
:104AA0001D40FCE50024E2E7802201251203224399
:104AB00001991203120B0D409946044CEFE5C046D4
:104AC000FF030000FFFFFFFEFE070000FF070000DE
:104AD00030B5134D0A034B00120B5B0DC90F0024B8
:104AE000AB4210DD0F4CA3420FDC80240E4D64035B
:104AF0002243ED1A1F2D0BDD0C48C31ADA40544235
:104B0000002900D11400200030BD094BCC18FAE771
:104B1000084CE840A44663449A400243EFE7C0468D
:104B2000FE0300001D040000330400001304000015
:104B3000FFFFFF7FEDFBFFFF4100090E4B1C70B52F
:104B4000DBB24602750AC40F012B14DDE0239B0083
:104B50006D07360BCB1800210A0D280012051C4DDD
:104B600032435B052A405B0813435B00E4075B08A4
:104B70002343190070BD002914D1002D1ED0280038
:104B800000F02CF80A281CDC0B232A001B1ADA4040
:104B9000030015339D400F4B12031B1A5B05160BC8
:104BA0005B0DD8E7002D06D0320B802636036D074B
:104BB0001643094BCFE7084B0026CCE7002300261D
:104BC000C9E703002A000B3B9A400025E3E7C046F3
:104BD000FFFF0F8089030000FF0700001C21012355
:104BE0001B04984201D3000C10391B0A984201D3D0
:104BF000000A08391B09984201D30009043902A2AE
:104C0000105C40187047C046040302020101010114
:104C1000000000000000000070B500260C4D0D4C97
:104C2000641BA410A64209D1002600F079FE0A4DAB
:104C30000A4C641BA410A64205D170BDB300EB580A
:104C400098470136EEE7B300EB5898470136F2E794
:104C50002C5900002C5900002C590000305900003C
:104C6000002310B59A4200D110BDCC5CC45401336E
:104C7000F8E703008218934200D17047197001339E
:104C8000F9E700000EB410B59DB002A902900861CA
:104C90000B48822488604861012040421FABC881D4
:104CA000084804CBA400006801938C8100F062F9ED
:104CB0000023029A13701DB010BC08BC03B0184743
:104CC000FFFFFF7F0C000020020010B51378002BBF
:104CD00005D1CC5CD4540133002CFAD110BD013283
:104CE000F4E70023C25C0133002AFBD1581E704751
:104CF00030B514009BB005001A00002C05DA8B2398
:104D00000360012040421BB030BD822368469B00F7
:104D100083810023009104919C4200D0631E029382
:104D20000593012369465B42CB8128001E9B00F05E
:104D300021F9431C01DA8B232B60002CE3D00023E4
:104D4000009A1370DFE7000007B5009313000A0014
:104D5000010002480068FFF7CBFF0EBD0C000020E9
:104D600070B50500002910D00C1F2368002B00DA55
:104D7000E418280000F0B9FB1D4A1368002B05D188
:104D800063601460280000F0B1FB70BDA34209D934
:104D9000216860188342F3D118685B68411821606C
:104DA000EEE713005A68002A01D0A242F9D9196827
:104DB0005818A0420BD1206809185818196082426F
:104DC000E0D110685268411819605A60DAE7A042D1
:104DD00002D90C232B60D5E721686018824203D1E9
:104DE000106852684118216062605C60CAE7C04682
:104DF000F0540020032370B5CD1C9D4308350600F8
:104E00000C2D1ED20C25A9421DD8300000F06DFBE0
:104E1000254A14682100002919D1244C2368002B4D
:104E200003D1300000F032FB20602900300000F098
:104E30002DFB431C2CD10C233000336000F056FBBB
:104E400003E0002DDFDA0C233360002070BD0B6817
:104E50005B1B1AD40B2B03D90B60CC18256003E025
:104E60008C420ED163681360300000F03FFB2000DD
:104E700007220B30231D9043C31AE7D05A42E25059
:104E8000E4E74B6863600C00EEE70C004968C2E79A
:104E90000323C41C9C43A042E0D0211A300000F040
:104EA000F5FA431CDAD1C6E7F0540020F454002090
:104EB000F0B58E6885B007000C00039201939E4206
:104EC00039D890238A89DB001A4234D00325096936
:104ED00023685B1A0293636902985D43EB0F5D19C7
:104EE000019B6D1001331B18AB4200D91D00530507
:104EF00032D529003800FFF77DFF061E09D10C23AB
:104F00003B6040230120A28940421343A38105B0A6
:104F1000F0BD029A2169FFF7A3FEA389144A1A4043
:104F200080231343A381029B2661F61826606561E6
:104F3000019EED1AA560019BB34200D21E00320013
:104F40000399206800F0BFFAA36800209B1BA360B0
:104F500023689E192660DAE72A00380000F0C7FAB5
:104F6000061EE0D121693800FFF7FAFEC7E7C04608
:104F70007FFBFFFFF0B59FB0029005938B890F0078
:104F800016001B0611D50B69002B0ED14021FFF72F
:104F900031FF38603861002805D10C23029A0138AE
:104FA00013601FB0F0BD40237B61002306AD6B6131
:104FB00020336B761033AB7634002378002B47D147
:104FC000A31B04930DD0A31B320039000298FFF7F6
:104FD0006FFF431C00D1B5E06A69049B94466344AB
:104FE0006B612378002B00D1ACE0012200235242F8
:104FF0006A6002A95432521801342B60EB60AB6036
:105000001370AB65584E05222178300000F050FA3D
:10501000621C002820D12968CB0604D5532302AE98
:1050200020309B1918700B0704D553232B2002AE98
:105030009B19187023782A2B16D000200A21099B6F
:105040002278303A092A55D9002815D0099313E05F
:10505000252BB5D00134B0E70123801B834029689C
:1050600014000B432B60CDE7059B181D1B680590B2
:10507000002B39DB0993140023782E2B0BD1637896
:10508000621C2A2B3ED1059B02341A1D1B68059217
:10509000002B34DB0793354E21780322300000F0DB
:1050A00007FA002806D04023801B83402A68013479
:1050B00013432B60217806222D48661C297600F0C8
:1050C000F7F9002846D02B4B002B2FD12968059BE0
:1050D0000722C90528D59B189343083305936B69AC
:1050E000039A9B186B6167E75B42EB6002230B43FB
:1050F0002B60C0E74B4301349B180120A0E701233C
:105100005B42C7E7002314000A201A006B60217875
:105110003039092903D9002BBDD00792BBE74243A0
:10512000013452180123F2E70733D5E705AB0093AA
:105130003A00114B2900029800E000BF0390039B46
:105140000133CCD1BB890B985B0600D429E7012041
:10515000404226E705AB00933A00074B290002982E
:1051600000F07AF8EAE7C0468C5800009258000038
:105170009658000000000000B14E0000F7B5150081
:1051800001938A680B6900900C00934200DA1300C7
:1051900022002B6043321278002A01D001332B60A9
:1051A00023689B0602D52B6802332B6006272368F1
:1051B0001F4027D0230043331B785A1E9341226897
:1051C000920630D42200019943320098089EB047DD
:1051D000431C25D0062320682A68E1680340002587
:1051E000042B03D18D1AEB43DB171D40A368226902
:1051F000934201DD9B1AED180027BD4220D100200B
:1052000010E00137E3682A689B1A9F42D2DA220035
:105210000123193201990098089EB047431CF0D130
:1052200001204042FEBD3020E118433108702100CA
:105230005A1C45310978A218433202331170C1E774
:10524000220001231A3201990098089EB047431C9E
:10525000E6D00137D1E70000F0B58BB006920A0026
:1052600043320793059004920A7E0C00109B6E2A2D
:1052700000D18FE017D8632A2CD008D8002A00D19B
:1052800099E0582A54D026004236327029E0642A28
:1052900001D0692AF7D121681A68080623D5111DA3
:1052A0001960156825E0732A00D188E008D86F2AB4
:1052B00029D0702AE7D1202209680A43226003E03E
:1052C000752A20D0782ADED122007821453211704B
:1052D0006C4A30E00E001A684236111D19601368DE
:1052E0003370012379E04906D9D5111D19600023D7
:1052F000D55E002D03DA2D23049A6D421370624BA4
:105300000A2703932FE020681968050603D5081DB6
:1053100018600D6805E04006F9D50D68081D186095
:10532000ADB2594B082703936F2A18D00A2716E00D
:1053300045310A70544A03921A682168101D18609A
:105340001568080622D5CB0702D520231943216012
:105350001027002D03D1202322689A4322602300C6
:10536000002243331A706368A360002B5CDB0422C5
:10537000216891432160002D58D1049E002B64D0F8
:105380002600039B42361B7833705EE04806DAD570
:10539000ADB2D8E709681A68080605D5111D19606D
:1053A000136862691A6006E04906F7D5111D196095
:1053B0001368A28A1A800023049E236154E01A68AD
:1053C000111D1960166800216268300000F070F845
:1053D000002801D0801B6060636823610023049A69
:1053E000137041E02369320006990598079DA8478C
:1053F000431C43D0236800259B070FD4099BE0681A
:1054000098423DDA18003BE0220001231932069948
:105410000598079EB047431C30D00135E368099AD0
:105420009B1A9D42F0DBE9E7002DA9D0049E2800DD
:105430003900FEF7B3FF039B013E5B5C280033702D
:105440003900FEF725FF051EF1D1082F09D1236889
:10545000DB0706D563682269934202DC3023013EF4
:105460003370049B9B1B2361079B09AA00932100B7
:10547000069B0598FFF782FE431CB3D101204042F2
:105480000BB0F0BDAE5800009D580000002370B571
:10549000064C050008002360FEF7D4FE431C03D130
:1054A0002368002B00D02B6070BDC0464056002002
:1054B000C9B28218904201D10020704703788B4214
:1054C000FBD00130F6E710B5884202D98B1898421C
:1054D00008D300239A4207D0CC5CC4540133F9E7C7
:1054E0008B5C8354013AFBD210BD70477047F8B50E
:1054F00007000D001600002905D11100FFF77AFC06
:1055000004002000F8BD002A03D1FFF729FC340075
:10551000F7E700F012F82C008642F2D9310038008B
:10552000FFF768FC041EECD029003200FFF798FB5F
:1055300029003800FFF714FCE3E70B1F1B68181F56
:10554000002B01DA0B58C018704700000A0D3C3CD4
:105550003C3C3C3C3C3C3C3C3C2054657374696E98
:1055600067204163747561746F72203E3E3E3E3E1B
:105570003E3E3E3E3E0A0D000A0D206964783A2008
:10558000256420262620447574793A202564252533
:10559000200A0D00574454207265736574206465B9
:1055A000746563746564210D0A000000506F7765AF
:1055B00072206F6E20726573657420646574656314
:1055C000746564210D0A0000536F6674776172651B
:1055D0002072657365742064657465637465642105
:1055E0000D0A000045787465726E616C20726573F7
:1055F0006574206465746563746564210D0A000038
:105600004F746865722074797065206F66207265CA
:10561000736574206465746563746564210D0A00A4
:10562000454550524F4D206E6F7420696E69746904
:10563000616C697A6564210D0A0000005753206E81
:105640006F7420656E61626C65642E2E2E0D0A00EB
:10565000575320656E61626C65642E2E2E0D0A0014
:105660002425732A253032780D0A0000000102003B
:1056700025642025642025640A0000000A0D203CD2
:105680003C20544320656E61626C6564203E3E2080
:105690000D0A00009E070000AA070000B6070000E0
:1056A000C2070000D60700000E0800001A0800001C
:1056B000420800006E080000AE0800000E0900005D
:1056C00044414C5341494C2C25303368750000004F
:1056D0002C256C690000000054785F526164696F8A
:1056E0003A2025730D0A00000101010205010202A2
:1056F00004080100A90B0000990B0000890B0000B1
:10570000790B0000190B0000090B0000F90A0000DA
:10571000E90A000080250000C0120000802500007A
:1057200000E1000000001000000010000000100068
:10573000000031000300040003000500FFFFFFFF2D
:10574000FFFFFFFF0300280003002900FFFFFFFF0A
:10575000FFFFFFFF0200300002003100FFFFFFFFEC
:10576000FFFFFFFFFFFFFFFFFFFFFFFF020018002B
:10577000020019000008004200180042001C00420C
:105780000014004200200042002400420028004291
:10579000002C004200300042003400420038004239
:1057A000003C00420001000200040008001000203C
:1057B0000040008000080042000C0042001000423F
:1057C0000014004200180042001C004249444C45AD
:1057D00000000000D8390000D8390000D839000096
:1057E000A43900001A3A0000343A0000D839000009
:1057F000D8390000A43900001A3A0000546D7251E3
:1058000000000000546D722053766300563B000088
:10581000523B0000523B0000A23B0000A23B0000B4
:105820006A3B00005C3B0000703B0000A43C0000B1
:10583000843C0000843C0000F43C0000963C0000E6
:10584000B23C0000883C0000C03C0000C0470000A3
:1058500080460000804600007C460000984700001B
:10586000984700008A4700007C46000098470000E7
:105870008A470000984700007C460000A0470000CF
:10588000A0470000A0470000A4490000232D302BB2
:105890002000686C4C006566674546470030313231
:1058A0003334353637383941424344454600303188
:1058B00032333435363738396162636465660000E7
:1058C00000000000000000000000000000000000D8
:1058D00000000000000000000000000000000000C8
:1058E00000000000000000000000000000000000B8
:1058F00000000000000000000000000000000000A8
:105900000000000000000000000000000000000097
:105910000000000000000000000000000000000087
:10592000F8B5C046F8BC08BC9E467047CD000000E4
:10593000F8B5C046F8BC08BC9E467047A5000000FC
:105940003F000000AAAAAAAA01000000100000203F
:1059500000000000E058000000590000C05800009E
:105960000000000000000000000000000000000037
:105970000000000000000000000000000000000027
:105980000000000000000000000000000000000017
:105990000000000000000000000000000000000007
:1059A00000000000000000000000000000000000F7
:04000003000041AD0B
:00000001FF
