:10000000684A0020C9210000C5210000C521000068
:1000100000000000000000000000000000000000E0
:10002000000000000000000000000000C5210000EA
:100030000000000000000000C5210000C5210000F4
:10004000C5210000C5210000C5210000C521000018
:10005000C5210000C5210000C5210000291B0000AA
:10006000391B0000491B0000591B0000691B0000E0
:10007000791B0000C5210000C5210000C52100003A
:10008000C5210000C5210000C5210000C5210000D8
:10009000C5210000C5210000C5210000C5210000C8
:1000A000C521000010B5064C2378002B07D1054B65
:1000B000002B02D0044800E000BF0123237010BDD4
:1000C00074000020000000000C580000084B10B520
:1000D000002B03D00749084800E000BF0748036829
:1000E000002B00D110BD064B002BFBD09847F9E741
:1000F00000000000780000200C5800000C580000A0
:100100000000000010B50B0000280ED01821002BB5
:1001100009D0036000218180C180028141811800E3
:10012000034B98470021080010BD1821FBE7C0468B
:10013000234B000010B5041E1AD000291AD04389A1
:100140009BB20220002B00D110BDA38822689446E8
:1001500063441B780B70A08801302189064B9847B7
:1001600089B2A1806389013B9BB263810120EBE7E7
:100170001820E9E71820E7E7B12C000070B5041E4D
:1001800016D0C3880268944663441970C0882589D4
:1001900001302900074B984789B2E18063899BB2FF
:1001A00000209D4203D9638901339BB2638170BDF6
:1001B0001820FCE7B12C0000F0B5C64600B50400DD
:1001C0000E001500002837D0002937D001891620ED
:1001D000914202D204BC9046F0BDE3889B188B424A
:1001E00019DCE08823689C4660443100144B984732
:1001F000E088268940193100124B984789B2E18086
:1002000063895D19ADB2658163899BB200209E420E
:10021000E0D26681DEE7E788CF1BBFB2E0882368C3
:100220009C4660443A003100054B98469847EA1BCB
:10023000F1192068C047DBE71820CBE71820C9E791
:10024000114B0000B12C0000002805D0002905D07A
:1002500043890B80002070471820FCE71820FAE73C
:1002600010B5084B1B781D20002B00D010BD1A388C
:10027000054B9847002801D01C20F7E70122014BCD
:100280001A70F3E790040020C10900000FB430B5E4
:1002900083B00C4B1B781F20002B04D103B030BC63
:1002A00008BC04B0184707AB0193074C069A80219D
:1002B000C9002000054DA84721000320044B9847A2
:1002C0000020EBE790040020900000206D4C00001F
:1002D000490B000070B50A4B020A00021043188057
:1002E0009970090AD9701D00064C002304222900C8
:1002F0000020A047002802D00528F6D01C2070BDA1
:10030000940400201908000070B50D1E1BD0030ACC
:10031000000218430D4B18801C000D4E01230222D1
:1003200021000020B047002803D00528F6D01C206B
:1003300070BD0023022229000020064CA04700289F
:10034000F6D01C20F4E71820F2E7C0469404002001
:10035000190800009D070000F8B50E0014000029E0
:100360001BD0030A000218430D4B18801D000D4FCF
:100370000123022229000020B847002803D00528C5
:10038000F6D01C20F8BD0023220031000020064CCE
:10039000A0470028F6D01C20F4E71820F2E7C0465A
:1003A00094040020190800009D07000010B5094BB7
:1003B0001B781D20002B00D010BD074B984700284C
:1003C00003D01D2801D01C20F6E70122014B1A7032
:1003D0000020F1E7B8040020E5060000F0B58BB07E
:1003E0000500254B1B781C24012B02D020000BB0EC
:1003F000F0BD043C0028F9D02621694400201F4BA1
:100400009847083C0028F1D11D4B9847060000276B
:10041000830F820092197B4192185B411948002199
:1004200080185941184A0023184CA047184B984788
:1004300026236B4418880130400180B2202269468F
:10044000144B9847041E01D01024CFE76B461A784E
:1004500001331A20684419784A4001338342FAD1A3
:100460006B469B7E934201D01324BFE71822694656
:100470002800094B9847B9E7B80400200903000099
:10048000551F0000571B0000581B0000392D0000AD
:100490000100002059030000114B000030B58BB063
:1004A0002E4B1B781C20012B01D00BB030BD262118
:1004B000694400202A4B984703001020002BF4D1F8
:1004C0000020284B984704000025830F8200121952
:1004D0006B4192185B412448002180185941234AFE
:1004E0000023234CA047234B984726236B441888AE
:1004F0000130400180B2202269461F4B984703001B
:100500001020002BD1D16B461A7801330A30684491
:1005100019784A4001338342FAD16B469B7E1320FF
:100520009342C2D100200F4B984700240A22002397
:100530002100124DA8470C4A0023801859410B4A4C
:1005400000230B4DA8470B4B98476B46198B200097
:100550000B4B9847A042A8D01020A6E7B804002073
:1005600009030000551F0000571B0000581B000026
:10057000392D00000100002059030000792D0000F2
:10058000D5020000064B1B781C20012B00D07047C1
:100590000222034B1A700022024B1A800020F6E759
:1005A000B80400209204002070B50400264B1B788C
:1005B0001C20022B00D070BD002C41D0234B1D8885
:1005C0002278631C20001A3019784A40013398427F
:1005D000FAD1A27600201E4B984702000023910F0B
:1005E000900080185941001849411A4A0023801888
:1005F0005941194A0023194EB047194B9847002C0E
:1006000020D001356D01ABB216481A0A1B02134304
:100610000380023020222100134B9847114D134CC8
:100620000023222229000020A047002803D005280B
:10063000F6D01020BFE7054A138801331380BAE7CC
:100640001820B8E71020B6E7B80400209204002074
:10065000551F0000571B0000581B0000392D0000DB
:100660000100002094040020114B00001908000034
:1006700070B5144B1B781C20022B00D070BD0021DC
:100680000020114CA0470020104B98470200002387
:10069000910F900080185941001849410C4A0023DD
:1006A000801859410B4A00230B4DA8470B4B984724
:1006B0000B4B19880220A0470122024B1A70002020
:1006C000DCE7C046B8040020D5020000551F00003A
:1006D000571B0000581B0000392D000001000020AE
:1006E0009204002070B58AB0244B1B781D24002B87
:1006F00002D020000AB070BD6433009300236A4624
:1007000013711374802292030292012252426946AD
:10071000CA818A810B770893D7338B84184B059352
:10072000184B0693184E194D6A4619493000A847D0
:10073000041EF9D1144B1D682B8A1BB2002BFBDB66
:100740002B68022213432B600F4E3068114B9847E1
:100750001F2318401E3B83400F4A1360F08800237C
:1007600010212A8A0A4204D101338342F9D310238B
:100770002B820122014B1A70BBE7C046E404002023
:100780000300080003000900BC040020C10D0000A4
:1007900000100042F91A000000E100E070B5050009
:1007A000164C24781F20002C00D170BD0838012D74
:1007B000FBD800291FD01248124C645D04804160B0
:1007C0004280012B0DD0002B03D0022B0ED017201E
:1007D000EBE70B490C480D4B98470028E5D0052066
:1007E000E3E7074908480A4B9847F6E704490648F3
:1007F000084B9847F1E71820D7E7C046E4040020EB
:10080000E804002084540000BC040020550F0000C0
:100810009D0F0000790F000070B50500124C247880
:100820001F20002C00D170BD0838012DFBD80029F5
:1008300018D00E480E4C645D048041604280002B4D
:1008400003D0012B09D01720EDE7084909480A4BCE
:1008500098470028E7D00520E5E704490548074BFD
:100860009847F6E71820DEE7E4040020F4040020AF
:1008700084540000BC040020BD0F0000E10F000004
:1008800070B582B0040043001B189B00114DED1899
:100890006B469E1D310028000F4B98473388002B74
:1008A00004D101220D4B1A5502B070BD6B465E1D7E
:1008B000310028000A4B98470A49630032785A529F
:1008C000C918E0000419A40007480019074B98470D
:1008D000EAE7C0463C090020490200006C290020DC
:1008E00035010000702900207829002075150000CE
:1008F00010B50320014B984710BDC0468108000089
:1009000010B50220014B984710BDC0468108000079
:1009100010B50120014B984710BDC046810800006A
:1009200010B50020014B984710BDC046810800005B
:1009300010B5040040000C4B195C001980000B4BF3
:1009400018180B4B98470B4B1B5D022B00D010BDAA
:1009500063000549C918E0000419A40006480019FD
:10096000064B9847F3E7C0463409002000050020F5
:100970007D01000030090020782900209115000039
:1009800010B50320014B984710BDC0463109000047
:1009900010B50220014B984710BDC0463109000038
:1009A00010B50120014B984710BDC0463109000029
:1009B00010B50020014B984710BDC046310900001A
:1009C000F0B5CE46474680B58FB004001725032802
:1009D00005D928000FB00CBC90469946F0BD4600E2
:1009E0003618B60003024649C918464880198022C5
:1009F0005200454B984705350028EAD1E3024349A8
:100A0000C91843488019802212013F4B984700289B
:100A1000DFD18023DB05029300230393FF2202A989
:100A20000A818B72CB7201220A754A758B75CB7560
:100A300008930B774B77A300364A9A580692364AAA
:100A40009B580593354B2201D1580A919B185A683F
:100A50000B929A680C92DB680D93E6003619B6008B
:100A60002F4B9E19A7002F4BFB5801932E4F02AA24
:100A700001993000B847051EF9D1294B9946E70086
:100A80003B199B004A469B5898461800274B9847AD
:100A90001F2318401E3B8340254A13603F19BF00A7
:100AA0004B46FA58138A1BB2002BFBDB43461B68EC
:100AB0000222134342461360A30099461D4B4A4647
:100AC000D158012230001C4B98469847E3001B196F
:100AD0009B00134FFF1821373B78022213433B70D2
:100AE000164B4A46D15800223000C04701223B78BD
:100AF00001210B433B70124B1A55124B1A5568E7F4
:100B00003005002000050020050100006C090020D0
:100B10003C090020A8540000B8540000C85400004C
:100B2000782900200855000095120000F91A0000ED
:100B300000E100E0885400005D15000098540000BA
:100B4000300900206C29002070B504000D0017202A
:100B5000032C00D970BD01300029FBD008000C4BDC
:100B6000984782B26000001980000A4B18182900CB
:100B7000094B9847094B1B5D0020012BEAD102224B
:100B8000064B1A552000064B98470020E2E7C04666
:100B9000094C00003C090020B90100006C2900202C
:100BA000810800000268138A1BB2002BFBDB704730
:100BB00003689A7B920707D502229A731B8A9B07C8
:100BC0004120DB17184070471A8A520706D559682A
:100BD000C02292020A435A601820F4E70020F2E78C
:100BE00030B50268002301240225917B21420BD1FC
:100BF000917B294206D101339BB201899942F4D8F5
:100C0000122002E0002000E0002030BDF0B5DE46FA
:100C100057464E464546E0B583B00600894605680E
:100C20004C880B885B0001221343DBB22B75324BDF
:100C3000984701906B68314A13406B60002807D0D9
:100C4000019803B03CBC90469946A246AB46F0BD25
:100C500030002B4B984701900028F1D1013CA4B201
:100C60008046284B9A46284B9B4611E03000D847D7
:100C700043465F1CBFB22B7E4A46526841465354DE
:100C800030001D4B9847013CA4B2002812D1B84651
:100C9000544511D02B8A9B062BD5F37A002BE5D037
:100CA000002CE3D16A688023DB0213436B60013CB4
:100CB000A4B2EDE7B8460190B37A002B10D0300013
:100CC000114B98476A68C0239B0213436B60300046
:100CD0000D4B98472A7E4B465B6841465A54AFE716
:100CE0003000094B98476A6880235B0213436B60AE
:100CF000EDE741230193A3E7E10B0000FFFFFBFFBA
:100D0000B10B0000FFFF0000A50B0000F0B5DE46B0
:100D100057464E464546E0B583B006000F000568CD
:100D20004C88244B98473B885B00DBB22B75300026
:100D3000214B98470190002807D0019803B03CBC94
:100D400090469946A246AB46F0BD30001B4B9847F3
:100D5000031E0190F1D1A046002420339946154B83
:100D60009B46154B9A46444514D02B8A4A4613425B
:100D70001CD03000D8477B681B5D2B763000D047F5
:100D8000002806D12B8A01345B07ECD51E23019382
:100D900000E00190B37A002BCFD03000054B98478C
:100DA0006A68C0239B0213436B60C6E7412301932B
:100DB000C3E7C046A50B0000E10B0000B10B00002B
:100DC000F0B5CE46474680B583B007000D0016004B
:100DD00039600800524B9847524A116A841C01231B
:100DE000A3400B43136201A933790B700D30C4B2D9
:100DF00020004D4B984720004C4B984730790021FC
:100E00004B4B98472B681C209B0704D503B00CBCA8
:100E100090469946F0BD2B681738DB07F6D4386842
:100E20003F4B9846984704004249434B9847A400DB
:100E3000424BE75000233B767B76002291467B8332
:100E4000BB8325224946B9543B6214332B603C686E
:100E50002000C047804680236A4613706B464A468E
:100E60005A7001236A4693706B464A46DA7070697D
:100E7000B569002848D06B46187002236A46537043
:100E8000000CC0B269462E4B9847002D41D06B46EE
:100E90001D7002236A465370280CC0B26946284B65
:100EA0009847B389FB80F3893B81327C8023002AF9
:100EB00004D1244B9B789B07DB0FDB01B268134303
:100EC000327F002A02D08022D20513432268316A81
:100ED0000A431343236080235B00636045460D355E
:100EE000E8B2194B98473368FA21C90059434B1EA1
:100EF0001818164B9847431F4020FF2B00D985E751
:100F0000DBB26381002081E700212000104B98476D
:100F1000B1E7012120000E4B98470500B7E7C04616
:100F2000811A0000000400406D200000E11F000055
:100F3000BD180000C5100000BD1A00004C2A00209A
:100F4000652100000020004189200000D129000017
:100F50000919000010B5838B9BB20522002B01D02C
:100F6000100010BD01338372C372024B9847020018
:100F7000F6E7C0460D0C000010B5838B9BB205222E
:100F8000002B01D0100010BD83720133C372024BDD
:100F900098470200F6E7C0460D0C000010B5838BA1
:100FA0009BB20522002B01D0100010BD8372C372CA
:100FB000014B98470200F7E70D0C000010B5838B3A
:100FC0009BB20522002B01D0100010BD01338372AB
:100FD000C372024B98470200F6E7C0460D0D0000B1
:100FE00010B5838B9BB20522002B01D0100010BDE1
:100FF00083720133C372024B98470200F6E7C04682
:101000000D0D00000268138A1BB2002BFBDB70473A
:1010100070B504000668458B838BED1AADB2838BE7
:10102000013B9BB28383838B9BB2002B1CD1C37A81
:10103000002B04D072688023DB0213437360A37A11
:10104000002B08D020000F4B98477268C0239B02EA
:10105000134373600CE020000A4B984772688023AA
:101060005B021343736003E07368074A13407360C5
:101070002000044B9847236A5D19337EDBB22B7046
:1010800070BDC04605100000FFFFFBFF70B50400F7
:1010900005682B8A5B0703D51E222523C25470BD29
:1010A000468B838BF61AB6B2838B013B9BB283834C
:1010B000034B9847236A9E193378DBB22B76EEE711
:1010C0000510000070B580006E4BC4582668637E22
:1010D000257E1D40638B9BB2002B03D1A38B9BB25B
:1010E000002B41D1638B9BB2002B08D0A38B9BB20A
:1010F000002B04D12533E35C052B00D166E0638B24
:101100009BB2002B0AD0A38B9BB2002B06D0338A54
:101110009B0600D57BE041222523E254638B9BB2E2
:10112000002B08D0A38B9BB2002B04D12533E35CAA
:10113000052B00D177E02523E35C052B13D0252375
:10114000E35C002B0FD00323337300236383A3835B
:101150002533E35C412B03D0A37A002B00D084E03D
:101160006B0700D58AE070BDB37BDB0707D5012391
:10117000B373338A9B0702D541222523E254338A75
:101180005B0707D518222523E2540023A383A37A03
:10119000002B0ED1A38B9BB263832523E35C052B2D
:1011A000BCD11F33E35C002B0CD02000364B98479A
:1011B000B4E72000354B98477268C0239B02134365
:1011C0007360E7E72000324B9847A7E71F33E35CE3
:1011D000002B00D093E7033333730023638325335D
:1011E0000022E254A37A002B08D10123B373EB074A
:1011F00000D493E7E368200098478FE72000234B53
:1012000098477268C0239B0213437360EFE724235F
:10121000E35C002B03D120001D4B98477EE72000A4
:10122000194B98477AE71F33E35C012B00D082E724
:10123000023333730023638325330022E254AB0768
:1012400003D52423E35C012B0BD0EB0700D472E71A
:101250002423E35C002B00D06DE7E368200098476F
:1012600069E723692000984765E72000074B984706
:101270007268E023DB021343736071E76369200047
:10128000984770E74C2A002011100000051000005C
:101290008D100000F0B5DE4657464E464546E0B597
:1012A0008DB005000C001600296008007F4B9847A0
:1012B000020023680520DB0706D50DB03CBC904634
:1012C0009946A246AB46F0BD236817309B07F4D47D
:1012D0007749086A971C0123BB4003430B620BA9A3
:1012E000737F0B700D32D7B23800724B98473800BD
:1012F000714B9847707F0021704B9847F37A6B7160
:10130000337DAB71737DEB712B6898461800674B8A
:1013100098470D3000220E2302A98C4663441A80A0
:1013200033680393F3689A46B37D9B467368994686
:10133000002B14D080235B05994530D1F37D002B21
:1013400031D133691F00C0B25D4B984701000E22B6
:1013500002AB9C46624438005A4B984720E0F37D2C
:10136000002B0BD01023009300230E2202A98C46E1
:101370006244B1693069544FB84711E033691F00C6
:10138000C0B24F4B984701001023009300230E2258
:1013900002A88446624438004B4FB84700E0002062
:1013A000002800D089E72A68039F138A1BB2002B0C
:1013B000FBDB0E2302AA944663441B8842465381FA
:1013C00053461F434B461F435B465B071F43F37D5A
:1013D000002B01D104331F43337D5B04727D120463
:1013E0001343F17A19433389FF2B03D0802252042F
:1013F00017431943337F002B03D1344B9B789B0752
:1014000001D580231F432A68138A1BB2002BFBDB04
:10141000434659602A68138A1BB2002BFBDB434604
:101420001F600AAB80221A7000225A70DA709A701C
:10143000336A0693736A0793B36A0893F36A039354
:101440000993002706AE06E02000214B984707E0ED
:101450000137042F0DD0F9B2BB0098590028F3D002
:10146000431CF5D00AA90870000CC0B2194B98476C
:10147000EEE70023AB60EB602B61AB616B61002298
:10148000EB83AB832033EA540133EA540133EA544B
:101490000133EA542868054B984704000E490F4B66
:1014A0009847A4000E4BE550002006E7811A000083
:1014B000000400406D200000E11F0000BD18000086
:1014C00089200000C5160000ED1600000020004134
:1014D0000919000065210000A1150000BD1A0000D7
:1014E0004C2A0020F8B506000C00150007680A4BCE
:1014F0009847F38B9BB2002B03D0084B98470520ED
:10150000F8BDF583054B9847B46105222323F254B7
:10151000223B7B730020F3E7891B0000C91B0000FE
:10152000F8B506000C00150007680A4B9847B38B06
:101530009BB2002B03D0084B98470520F8BDB5831C
:10154000054B9847746105222223F2541E3B7B739E
:101550000020F3E7891B0000C91B0000931C9B00BF
:1015600019502021012393401A00435C1343435434
:101570007047000010B5C2791C23002A01D1180061
:1015800010BD0122014B98470300F8E7E514000065
:1015900010B50122014B984710BDC046211500002F
:1015A000F8B58000464BC5582C68238A1BB2002B27
:1015B000FBDBA37B667B1E402023EB5C2122AF5C20
:1015C0001F40F30722D5EB8B9BB2002B1CD0AA69DE
:1015D0001378DBB2511CA961697901290ED09BB245
:1015E000DB05DB0D2383EB8B013B9BB2EB83002BF5
:1015F0000CD1013323730133637307E0517809027F
:101600000B430232AA61EBE701232373B30706D52C
:101610000223237300222133EA54FB0716D47307F5
:101620004DD5AB8B9BB2002B47D0238ADBB25A0738
:1016300020D09A070ED51A222223EA54203B238277
:101640007B073CD52B692800984738E02800AB6819
:101650009847E4E75A0705D51E222223EA541E3B89
:101660002382EDE7DB07EBD513222223EA54213B4B
:101670002382E5E7238BDB05DB0DDAB269690A70AB
:101680006A69511C69616979012910D0AB8B013BF2
:101690009BB2AB83002B12D10433237300221E3381
:1016A000EA54BB070BD5EB682800984707E01B0AF4
:1016B00053706B6901336B61E8E704232373F8BD52
:1016C0004C2A002010B5490840230024814202D250
:1016D000180010BD1C00091A631C9BB28842F9D97E
:1016E0004023FF2CF4D814800023F1E7F0B5DE4648
:1016F00057464E464546E0B589B00C00059212AA01
:10170000117805004D434022A54207D9100009B0C9
:101710003CBC90469946A246AB46F0BD002B55D145
:10172000020008000021634DA847834626000027D9
:101730000023002400930194002200233F20202155
:101740008C461F390296039714E06446241A0D0054
:10175000E540A84615E0029C039D121BAB414D4697
:10176000009E019F35433C0046463443009501945A
:1017700001381DD3202464420419E6D40D00A5408D
:10178000A8460C008440A14692185B4114001D003D
:1017900046465F463E4203D00E00264332002B00F1
:1017A000029C039D9D42E3D8D5D19442E0D8D2E774
:1017B0000022012300980199121A8B411900130C81
:1017C0000A041A43059B1A8000229FE70022012B7E
:1017D000F8D1630F0493E30098460A000023002128
:1017E000344CA04704000D0000239C460693203390
:1017F0009B4601266346079348E05946C91B3000C3
:10180000C840824610E000980199121A8B41029953
:10181000484601430291013F25D3202149427918CE
:10182000EBD43000884082463100B9408946921896
:101830005B411000190044464D462C40A4465446D6
:10184000049D2C40A246644655462C4303D03400E8
:10185000044322000B00009801999942DBD8D2D1B1
:101860009042D8D8CFE7009C019D0299079A8B1A25
:10187000DB0811498B4214D9069B0133DBB21900F6
:101880000693130001330793082908D0002302931D
:10189000002200233F21009401950F00BDE7402264
:1018A00034E740220699082900D12FE74A031A435A
:1018B00088E7C046792D0000FF1F000010B582B0F8
:1018C00004000E4B1B78002B07D0002905D10B4BD1
:1018D0005B78834210D01D200CE001A90C700C2015
:1018E000074B98470C20074B9847044B5C7001222C
:1018F0001A70002002B010BD0020FBE7082A00206B
:101900006D200000E11F0000404B984231D00AD901
:101910003F4B98424DD03F4B98425AD03E4B984255
:1019200037D0002070473D4B98420CD03C4B98423A
:10193000F7D1012917D000295DD0022915D003293C
:1019400015D00020EEE7012907D0002951D0022947
:1019500005D0032905D00020E4E73248E2E7324809
:10196000E0E73248DEE73248DCE73248DAE732487F
:10197000D8E7012907D000293FD0022905D0032943
:1019800005D00020CEE72D48CCE72D48CAE72D48EA
:10199000C8E7012907D0002931D0022905D0032941
:1019A00005D00020BEE72848BCE72848BAE7284809
:1019B000B8E7012907D0002923D0022905D003293F
:1019C00005D00020AEE72348ACE72348AAE7234828
:1019D000A8E7012907D0002915D0022905D003293D
:1019E00005D000209EE71E489CE71E489AE71E4847
:1019F00098E71E4896E7032094E71D4892E71D48A4
:101A000090E71D488EE71D488CE7C0460010004255
:101A100000180042001C004200140042000800426E
:101A2000000C00420300050003000600030007004D
:101A30000300010003001E0003001F000300090053
:101A400003000A0003000B00030011000300120052
:101A50000300130003000D0003000E0003000F003D
:101A6000030017000300180003001900030004001E
:101A7000030008000300100003000C000300160020
:101A800030B587B00B4B6A4632CB32C232CB32C252
:101A9000009B83420BD001239A0069465258824230
:101AA00006D00133062BF7D1002007B030BD00234C
:101AB000D8B2FAE71855000070470000F0B50A4B9D
:101AC0001B78002B0CD1094F094E0A4D0024DE5122
:101AD0005A1914600433182BF9D10122024B1A70E1
:101AE0008000024BC150F0BD0A2A00200C2A0020C1
:101AF000B91A00004C2A002000B583B007236A46BB
:101B0000137001335370013393700133D370013379
:101B1000137101335371034B98476B46185603B04A
:101B200000BDC046811A000010B5024B1B680020A2
:101B3000984710BD0C2A002010B5024B5B680120AD
:101B4000984710BD0C2A002010B5024B9B6802205C
:101B5000984710BD0C2A002010B5024BDB6803200B
:101B6000984710BD0C2A002010B5024B1B690420B9
:101B7000984710BD0C2A002010B5024B5B69052068
:101B8000984710BD0C2A00200C4B1B68002B06D177
:101B9000EFF31083002B07D00022094B1A70074A7D
:101BA000136801331360704772B6BFF35F8F002272
:101BB000044B1A700132024B1A70F0E7242A0020FD
:101BC000282A00200C000020084B1A68013A1A60ED
:101BD0001B68002B09D1064B1B78002B05D0012276
:101BE000044B1A70BFF35F8F62B67047242A00203F
:101BF000282A00200C000020F0B583B001AC01259C
:101C000065700027A770257021000E20064EB04792
:101C10008022D201054B9A612770657021000F2048
:101C2000B04703B0F0BDC046311C00000044004185
:101C300000B583B001AB80221A700A785A704A78D6
:101C40009A708A78DA701900014B984703B000BD8A
:101C50006521000010B5072803D88000164B1B58DB
:101C60009F46002027E0154BD86824E0144B1B6AE0
:101C70009B059B0F1348D8401DE0104B18691AE0D4
:101C80000E4B1B6800209B0715D50D491022CB6811
:101C90001A42FCD0094B1B685B0701D40A480AE0D2
:101CA00000200A4B9847054B9B681B041B0C5843AC
:101CB00001E08020000210BD305500002C2A0020D9
:101CC0000008004000127A00006CDC02892000004D
:101CD00070B50C490B6A0478857840780122104071
:101CE00080014026B34303432A40D201802083432E
:101CF00013430322224012020348034013430B62A2
:101D000070BDC04600080040FFFCFFFF072803D855
:101D100080001E4B1B589F46172036E01C4A136A52
:101D200002210B43136200202FE0194A936902211C
:101D30000B439361002028E0154A138A02210B43CC
:101D40001382002021E0124A938A02210B439382DE
:101D500000201AE00F4B1A6802210A431A601B6820
:101D60000D4A13400A4A938411001022CB681A428C
:101D7000FCD0084A9168064BD96251689962126892
:101D800092B29A84002000E0002070475055000075
:101D9000000800402C2A00207FFF000030B585B0ED
:101DA000C222D2001A4B9A601A4A53681E218B43F2
:101DB000536001236A4613700024174DE0B2694650
:101DC000A84701341C2CF9D103A800244470012534
:101DD00085700470114B98470620114B9847114BA2
:101DE0009847114B1C725C729C72DC7201956B46B9
:101DF0005C7006236A4613701472547269460020A0
:101E00000A4B984700200A4B984705B030BDC046A2
:101E100000080040004000416D200000D11C00007F
:101E20000D1D0000351E000000040040591E00007A
:101E3000111F0000064A936908210B439361012298
:101E4000044B1A7019000B781342FCD17047C0463E
:101E500000040040000C004070B5060004000D783E
:101E60002D0205434B78002B02D08023DB021D435B
:101E70004B7A002B02D080231B031D4348680128A6
:101E800010D9431E184234D1022830D9022300222F
:101E900001325B009842FBD81202324314008023C7
:101EA0005B031D430B7A002B02D080239B031D4351
:101EB000134A53785BB2002BFBDB124B9847124B53
:101EC0001E700F4A53785BB2002BFBDB0C4B9C60FF
:101ED0001A0053785BB2002BFBDB094A5368802160
:101EE00049020B401D435560084B984770BD0022C6
:101EF000D2E70402344380239B021D43D2E7C0464D
:101F0000000C0040891B0000080C0040C91B0000A9
:101F100010B504000B4A53785BB2002BFBDB0A4B75
:101F200098470A4B1C70074A53785BB2002BFBDBC7
:101F3000044A516880235B020B435360044B98476B
:101F400010BDC046000C0040891B0000040C00407E
:101F5000C91B000070B504001A4A53785BB2002B0D
:101F6000FBDB194B9847194B1C70164A53785BB230
:101F7000002BFBDB134E7068C004C00E144B984757
:101F80000500124B1C707668F602F60F114B1C70A0
:101F90000C4A53785BB2002BFBDB0A4B9C68240293
:101FA000240C0D4B9847002E07D1012C07D9210096
:101FB00028000A4B9847050001E00134E54028005D
:101FC00070BDC046000C0040891B0000040C00409E
:101FD000551C0000080C0040C91B0000D12900005E
:101FE00010B50400064B9847064B1C70064A5388F0
:101FF0008021C9010B435380044B984710BDC04654
:10200000891B0000020C0040000C0040C91B0000AE
:1020100010B504000F4B98470F4B1C700F4A5388A4
:102020001B05180F53880E490B40538053880D49E8
:102030000B40538011008022D2014B881342FCD107
:1020400006494A8803020648024013434B80064B68
:10205000984710BD891B0000020C0040000C004096
:10206000FFF0FFFFFFBFFFFFC91B000010B50C789A
:1020700024020443024B9847A4B2024B5C8010BD7B
:1020800011200000000C004010B50400064B9847DA
:10209000064B1C70064B5C882405240F054B9847A3
:1020A0002000054B984710BD891B0000020C004022
:1020B000000C0040C91B0000551F000030B5D3784C
:1020C000002B35D11378802B29D01B068024640285
:1020D000234354780225AC4306D19478002C20D1B8
:1020E0008024A402234341605478013C012C1CD974
:1020F0000D042D0CA024E4052C431C4384620D0C1C
:10210000D02424062C431C438462D478002C22D192
:102110005B031CD59378012B1ED0416117E000238F
:10212000D7E7C024E4022343DDE70D4C2340DFE77B
:1021300041600C04240CA023DB05234383620C0CB8
:10214000D0231B0623438362D378002B03D153781B
:10215000013B012B02D930BD8161F8E78160FAE7CC
:10216000FFFFFBFF10B50A00C1090023002904D1BD
:102170004309DB0105498C4663441F2420400121AB
:1021800081401800024B984710BDC04600440041F2
:10219000BD2000007047000010B5054B9847054B67
:1021A0009847054B9847054B9847054B984710BDF6
:1021B0009D1D0000F91B00009521000095210000E5
:1021C00095210000FEE7000010B51A4A1A4B9A420A
:1021D00011D01A00194B9A420DD2194A03339B1A97
:1021E0009B0801339B000022134812498C588450ED
:1021F00004329A42FAD1134A134B9A420AD2D34379
:1022000011495B1803218B4304339B18002102C240
:102210009342FCD10D4AFF210D4B8B4393600D4A35
:1022200053687F390B4353600B4B98470B4B9847D0
:10223000FEE7C0460C58000000000020740000209B
:102240000400002074000020682A002000ED00E057
:102250000000000000400041C94A00008522000043
:102260000300064A1268002A04D0044A1068C31802
:10227000136070470249014A1160F6E7402A0020C6
:10228000684A0020F0B5DE4657464E464546E0B562
:10229000C14CA544C14B9847C14B9847C148C24B5C
:1022A0009847C24B9847002814D1C148BE4CA0475C
:1022B000C048A04700250AAB1D8401230AAA538405
:1022C000BD48BE4B984714AB1C00BD4B9B460394C6
:1022D000A84613E0BB48B44B98470020BA4B9D4436
:1022E0003CBC90469946A246AB46F0BD02998A7620
:1022F0000023CB76203443463C2B41D0D847029470
:10230000B24B9847B24F0022B24BB847B24EB34AD5
:10231000B34BB047B34B99460022B34BC84720603C
:102320006160D847A94B98470022AA4BB847AB4AEF
:10233000AB4BB0470022AD4BAD4DA847A060E1606C
:10234000D847A24B98470022AA4BB847A34AA44BB0
:10235000B0470022A74BC8472061616101239C461A
:10236000E0443C214046A44B984721832278631CDB
:1023700020001A3019784A4001338342FAD1B5E778
:10238000039B9A468A48884CA0479C48A0479C4B90
:10239000984755460024844E9A4F05E08448824B66
:1023A000984720353C2C0BD0013421009648B0478B
:1023B0002800B8470028F1D082487B4B9847EDE7CA
:1023C000924B98470020924B98470027FA229200A0
:1023D000002339008F4DA8478F4A002380185941A8
:1023E0008E4A00238E4DA8478E4B9847039753463D
:1023F0000293039B0133039319008B486A4B984760
:102400000CA88A4B9847002800D0BCE08848664B4F
:102410009A4698470C9B1E000D9F7D000022854B1D
:10242000089630006908844DA946A8470490059194
:10243000029B1D685E687200944600227D4B280056
:1024400064466108C847069007917C4A9046280078
:102450003100904702B293465D4E0022784B0498BB
:102460000599B047774DA847040008983900C04740
:1024700007B20022724B06980799B047A847009010
:102480005B46220039007048D0470E9B1C000F9A13
:102490000B9257000022674B0A9420007908C84726
:1024A00006900791029B99680491DF687C000022E6
:1024B000604B04986108C847089009910498390056
:1024C000C04707B200225E4B06980799B047A8475D
:1024D00004000A980B99C04703B29B460022584B50
:1024E00008980999B047A84700903B002200594638
:1024F0005648D047109B1C00119A0B92570000229F
:102500004C4B0A9420007908C84706900791029B1B
:10251000196904915F697C000022464B04986108A8
:10252000C8470890099104983900C04701B289460C
:102530000022434B06980799B047A84704000A9821
:102540000B99C04707B200223D4B08980999B04744
:10255000A84700904B46220039003D48D0473D48EF
:10256000D0473D4B9847002811D111480E4B984752
:10257000029B20330293039B3C2B00D039E7374862
:10258000094B9847A9E60F48074B9847A5E60D4821
:10259000054B9847A1E6C04614F8FFFF99210000BB
:1025A00061020000705500008D020000AD030000C4
:1025B00098550000A4550000D2040000354B0000DF
:1025C000914B00008C550000EC070000E54900002D
:1025D000113E000000002440A93500000000C0FFAB
:1025E000FFFFDF41892F00000000444000004E4003
:1025F0001143000000408F40DD2A0000BC55000060
:1026000085050000A9050000E055000071060000E6
:10261000551F0000792D0000571B0000581B0000BB
:10262000392D000001000020F0550000DD030000FE
:10263000145600000000F03F612600007D490000B4
:1026400080842E41CD2D000020560000445600000D
:1026500068560000885600009D040000A456000043
:10266000F0B54746CE4680B58DB01D0006000F0080
:10267000140000F061F82E4B009001911B785BB2C2
:102680009846013334D022002B002000290002F0AC
:1026900055F900282CD132003B003000390002F0FF
:1026A0004DF98146002823D1002200232000290073
:1026B00000F014FB00281BD0012302931D4B04964D
:1026C000059703934B460A93434606940795002BC0
:1026D00015D10896099702A800F078F9002819D0BA
:1026E0000A9B0093002B1DD1089B099C0093019429
:1026F000009801990DB00CBC90469946F0BD00239E
:1027000000221900100000F04FFF43460890099185
:10271000022BE0D102F0D2F9212303600A9B00933F
:10272000002BE1D002F0CAF90A9B00930360DBE7BB
:102730000D000020B8560000F0B55746DE464E4664
:10274000454699465B005B08E0B51D0083B08346B3
:1027500004009246170015432DD04E00914D760887
:102760000196AE4227DC554215438F4EED0F1D43B7
:10277000B54220D8CD0F019EED07AC469E4207DC46
:10278000050088469E421FDB90421DD300D16FE0BA
:10279000864D019EAE4220DC002E00D0B9E05D46A1
:1027A000002D00DCF8E0824D5E467600013DB34628
:1027B000002EF9DC16E04B4601F02AFB02000B006C
:1027C00000F0F2FE050088462800414603B03CBCFC
:1027D00090469946A246AB46F0BD764E019DB04666
:1027E0002D154544714EB34212DC002B00D0A7E0FA
:1027F0005646002E00DCD1E06D4EB04601267642F2
:10280000B34656467600D844B246002EF6DC04E0C5
:102810001E15B046674EB246D044674EB5426ADBDD
:1028200080260903090B76030E436349884554DB70
:102830004B4680201B031B0B400318434346ED1AF5
:10284000002D1ED0BC429B41311A5B42C91A09D4EB
:102850000B00E41B23430BD0E60F49008E196400E4
:10286000013DEDE77100E60F8E196400013DE7E7D9
:102870006346DA0F514BD2009B181D685B6898467F
:10288000A2E7BC429B41301A5B42C01A72D4E41BDF
:1028900003002343ECD0454B1A00984209DCE30FB8
:1028A0004000C01801235B4299466400C84490422E
:1028B000F5DD414B984551DA42469B1A142B5BDCFF
:1028C000202221000400D21AD940944018410C4320
:1028D000614601432500884676E74046091A1F29CC
:1028E00028DC20201700401AC7408B4038008A405F
:1028F00018431700A2E7741B1F2C15DC20210600CB
:10290000091BCE403100019EA040A64004000E43AA
:102910008BE7019DED02A846274D46467600013D16
:10292000B046002EF9DC5DE725490024491B8840AC
:1029300006007AE7224B00271B1A9A4010007DE719
:10294000DE02B2461C4EB04601267642B3465646DB
:102950007600D844B246002EF6DC5EE7194B1A49E1
:1029600099466346414448441843090508432500F5
:10297000804629E730008BE71F2B06DC2022DC4055
:10298000D31A984004436046A2E742460C4B9B1A78
:102990001841040060469BE7054D23E7044EB0460E
:1029A0003BE7C046FFFFEF7F0000F07FFFFF0F0017
:1029B000EDFBFFFF01FCFFFF02FCFFFFC056000024
:1029C000E2FBFFFF0000F0FFFF0300000020704764
:1029D000002243088B4274D303098B425FD3030A5E
:1029E0008B4244D3030B8B4228D3030C8B420DD371
:1029F000FF22090212BA030C8B4202D312120902FF
:102A000065D0030B8B4219D300E0090AC30B8B423C
:102A100001D3CB03C01A5241830B8B4201D38B03EA
:102A2000C01A5241430B8B4201D34B03C01A52418F
:102A3000030B8B4201D30B03C01A5241C30A8B42D2
:102A400001D3CB02C01A5241830A8B4201D38B02BD
:102A5000C01A5241430A8B4201D34B02C01A524161
:102A6000030A8B4201D30B02C01A5241CDD2C309D3
:102A70008B4201D3CB01C01A524183098B4201D34F
:102A80008B01C01A524143098B4201D34B01C01A3A
:102A9000524103098B4201D30B01C01A5241C308B2
:102AA0008B4201D3CB00C01A524183088B4201D321
:102AB0008B00C01A524143088B4201D34B00C01A0D
:102AC0005241411A00D20146524110467047FFE779
:102AD00001B5002000F0F0F802BDC0460029F7D093
:102AE00076E7704703460B437FD4002243088B42AE
:102AF00074D303098B425FD3030A8B4244D3030B85
:102B00008B4228D3030C8B420DD3FF22090212BA49
:102B1000030C8B4202D31212090265D0030B8B42C5
:102B200019D300E0090AC30B8B4201D3CB03C01AAF
:102B30005241830B8B4201D38B03C01A5241430B8A
:102B40008B4201D34B03C01A5241030B8B4201D37A
:102B50000B03C01A5241C30A8B4201D3CB02C01AE5
:102B60005241830A8B4201D38B02C01A5241430A5D
:102B70008B4201D34B02C01A5241030A8B4201D34C
:102B80000B02C01A5241CDD2C3098B4201D3CB01F3
:102B9000C01A524183098B4201D38B01C01A5241A2
:102BA00043098B4201D34B01C01A524103098B42A6
:102BB00001D30B01C01A5241C3088B4201D3CB0091
:102BC000C01A524183088B4201D38B00C01A524174
:102BD00043088B4201D34B00C01A5241411A00D224
:102BE00001465241104670475DE0CA0F00D049428D
:102BF000031000D34042534000229C4603098B42FD
:102C00002DD3030A8B4212D3FC22890112BA030A84
:102C10008B420CD3890192118B4208D38901921106
:102C20008B4204D389013AD0921100E08909C3098B
:102C30008B4201D3CB01C01A524183098B4201D38D
:102C40008B01C01A524143098B4201D34B01C01A78
:102C5000524103098B4201D30B01C01A5241C308F0
:102C60008B4201D3CB00C01A524183088B4201D35F
:102C70008B00C01A5241D9D243088B4201D34B007A
:102C8000C01A5241411A00D20146634652415B10BC
:102C9000104601D34042002B00D54942704763469D
:102CA0005B1000D3404201B5002000F005F802BDE2
:102CB0000029F8D016E770477047C0468446101CBC
:102CC00062468C46191C634600E0C0461FB501F001
:102CD0003DF8002801D40021C8421FBD10B500F006
:102CE00097FF4042013010BD10B501F02FF80028C9
:102CF00001DB002010BD012010BDC04610B501F061
:102D000025F8002801DD002010BD012010BDC046BF
:102D100010B500F0B7FF002801DC002010BD012035
:102D200010BDC04610B500F0ADFF002801DA00204C
:102D300010BD012010BDC046002B11D1002A0FD1BB
:102D4000002900D1002802D00021C943081C07B483
:102D5000024802A14018029003BDC0465DFFFFFF7C
:102D600003B4684601B5029800F04EF8019B9E46F8
:102D700002B00CBC7047C046F0B5CE4647461504BD
:102D80002D0C2E0080B50704140C3F0C9946030C43
:102D90007E435D43674363437F19340CE4199C46CB
:102DA000A54203D980235B029846C4444B46514355
:102DB00043433604360C250C24046544A4195918E1
:102DC000491920000CBC90469946F0BD70B5002210
:102DD0000C4B04000D00FFF7A5FF002804D12000D4
:102DE000290001F0CBFD70BD064B00222000290018
:102DF00001F08EFA01F0C2FD80231B069C46604460
:102E0000F1E7C0460000E041F0B557464E46454662
:102E1000DE46E0B5040083B00D00924699468B4231
:102E20002FD82CD04946504601F03CFE2900060020
:102E3000200001F037FE331A9846203B9B4600D510
:102E400074E053465A4693401F005346424693400F
:102E50001E00AF4229D826D05B46A41BBD41002BE3
:102E600000DA79E0002200230092019301235A4600
:102E700093400193012342469340009319E082421C
:102E8000D0D900220023009201930C9B002B01D08B
:102E90001C605D600098019903B03CBC9046994667
:102EA000A246AB46F0BDA342D6D900220023009231
:102EB00001934346002BE8D0FB0772081A434646AD
:102EC0007B080EE0AB4201D1A2420CD8A41A9D416E
:102ED000012024196D410021013E24184D41002E8E
:102EE00006D0AB42EED9013E24196D41002EF8D137
:102EF0005B460098019900196941002B22DB2B00E9
:102F00005A46D3402A004446E2401C005B46150066
:102F1000002B2CDB26009E40330026004746BE4097
:102F20003200801A994100900191AEE74246202379
:102F30009B1A5246DA40414613004A468A4017001F
:102F40001F4382E7424620239B1A2A0046469A40A6
:102F50002300F3401343D5E74246202300219B1A68
:102F60000022009101920122DA40019282E742465A
:102F7000202326009B1ADE402F00B4469740664669
:102F80003B003343C9E7C046F8B54546DE465746E1
:102F90004E460C03E0B54E00C90F88460D00610A8D
:102FA000440F0C43C70019035800DB0F9B464B0A24
:102FB000510F0B43760D400D1900D200D84500D1BA
:102FC000AEE0351A002D00DCF6E000280FD11343E7
:102FD00000D1DBE06B1E002B00D037E1BA1A97421C
:102FE000BF41641A7F42E41B0126170024E0C64B50
:102FF0009E424DD080231B041943382D00DD07E18C
:103000001F2D00DD38E12020431B9A460B0050465F
:103010008340994613004846EB401843030050464E
:103020008240501E8241E9401A43BA1A611A9742FF
:10303000A441170064420C1B230262D56402650A96
:10304000002D00D1DFE0280001F00EFD0300083B59
:103050001F2B00DDD2E020223C00D21A9D40D4403C
:103060009F4025439E4200DDC4E09E1B731C1F2B26
:1030700000DDF1E0202238002900D21AD84091402A
:1030800097402C000143781E8741DC4000260F4307
:103090007B0709D00F233B40042B05D03B1DBB42CF
:1030A000BF417F42E4191F0023022CD5964B013605
:1030B0009E4200D19AE04546944BFF081C406007B1
:1030C000760564020743240B760D00212403230BAD
:1030D0000C0D8F4A24051C431440330523435B0029
:1030E000ED075B082B43380019003CBC904699461D
:1030F000A246AB46F8BD6446044300D111E2040089
:1031000067467B07C6D145466007FF080743E408CA
:103110007D4B9E4230D024037605240B760DD4E7F8
:10312000331A9A46002B78DD002831D07648864243
:10313000AED08020000401435346382B00DCE9E088
:103140000A43511E8A410021D219BA42BF410919CE
:103150007C4217000C192302D3D56B4B01369E42DB
:1031600000D13AE10120694B1C407B0807401F4316
:10317000E007074364088BE723003B4300D1CBE122
:103180008022120314432403240B9EE72E007FE7C2
:103190000800104300D1B4E0581E002800D0DEE043
:1031A000BA18BA429B4164185B42E4181700012622
:1031B0002302A6D50226D5E7002D6ED1701C40054E
:1031C000400D012800DCF9E0B81A844687428041AE
:1031D000E51A40422D1A280200D489E0D71BBA42D2
:1031E00092411C1B5242A51AD84629E745460024A5
:1031F00000276AE7454CF61A2C4049E73D0028387D
:10320000854000272EE7380001F02EFC20301DE716
:103210000A43511E8A41002107E7002B00D0F3E04A
:10322000701C43055B0D012B00DCADE0364B984272
:1032300000D1D1E0BA18BA42BF4164187F42E41904
:10324000E707520817436408060021E72E48854225
:1032500000D193E01D00D0E629001F3EF140202B55
:1032600000D18DE04022D31A9D402F437D1EAF41F7
:1032700000240F43002644E72B000800203BD840E1
:103280000300202D00D17DE04020451BA9400A43CA
:10329000511E8A4100211A43C7E6002E50D01A4E13
:1032A000B04257D080266B429946360434434B4691
:1032B000382B00DDD6E01F2B00DD35E12026F51A86
:1032C0002600AE40B2463E00DE40AC4635005646D3
:1032D0002E436546AF407D1EAF41DC403743D71BD0
:1032E000BA4292410C1B5242A41A0600D846A3E6E9
:1032F000644667462C4300D0A2E60025002600273E
:1033000006E71E00C4E6C046FF070000FFFF7FFF80
:10331000FFFF0F801F2B63DC2020C31A080098409A
:103320009C46834653461000D84003005846184335
:1033300063469A40531E9A4153460243D94003E7DD
:1033400026003E4306D0EB439946002BC7D0944E4F
:10335000B042ACD10C0017000600D84698E6904B5E
:103360009A450BD08246E7E6002800D09EE0180080
:10337000104300D1E9E01C001700D846884E87E6CC
:10338000002572E7002182E723003B43002E00D096
:10339000ABE0002B00D1E7E00B00134300D177E650
:1033A000BA18BA42BF4164187F42E419230200D41C
:1033B000F2E07C4B17001C40060069E62000384311
:1033C000002ED1D100285BD11C00144300D1A8E00D
:1033D0001C001700D8465BE606000024002797E68D
:1033E00050460B002038C34099465346202B00D14D
:1033F00095E0402350461B1A99400A43511E8A41CA
:103400004B4600211A439FE6002E30D126003E4352
:1034100067D0DB439A46002B1CD0614EB04260D08F
:103420005346382B00DD96E01F2B00DD9FE0202661
:10343000F31A26009E409C46B34653463E00DE40AB
:1034400033005E461E4363469F407B1E9F415346AA
:10345000DC403743BF189742924164185242A41887
:10346000060078E627437C1EA741002437E74C4E30
:10347000B04236D080265B4236049A463443CFE7CA
:103480001800104300D103E6B81A84466745AD41E1
:10349000E01A6D42401B050200D42CE6D71BBA424D
:1034A00092411C1B5242A41AD846F1E51800104361
:1034B00000D163E7F808670707438020E4080003AA
:1034C000044208D0DD08054205D1D208590711434E
:1034D0000F002C00D8467B0FE4001C43FF00304E49
:1034E000D6E50C0017000600D2E5002B38D00B0003
:1034F000134300D142E7F808670707438020E40838
:1035000000030442E7D0CB080342E4D1D2084907C4
:1035100011430F001C00DEE700270024D5E5002141
:103520006BE700250027F3E54E462500203EF540D9
:103530004B462E00202B2DD04025ED1AAC402743C2
:103540007C1EA74100243743C9E6802400252403BC
:10355000134E0027DCE527437C1EA741002479E7B2
:103560000C0017000E4E93E50C00170090E5564630
:103570002300203EF34099465346202B0ED0402393
:1035800056469B1B9C4027437C1EA7414B4600246C
:103590001F435FE70024D2E71700B2E50024F2E7FB
:1035A000FF070000FFFF7FFFF0B557464546DE46A8
:1035B0004E46E0B54C000E0387B0834692461D0090
:1035C0008046360B640DCF0F002C4FD06F4B9C42C2
:1035D00035D08023420F1B04F60013433343994632
:1035E000C30098466A4B00269C460023644403931C
:1035F0002B031B0B9B466B00ED0F50465B0D01959B
:103600005ED0624A934253D05A46D1008022400F86
:10361000120402430A4393465246D1005C4A944640
:10362000002263443800684084460290E41A16433E
:103630000F2E00D9B4E0574BB6009B599F460300AC
:10364000334399466CD100239846023308260393EE
:10365000CEE7CB464146039A0197022A65D1019BEA
:103660004A4C9C460023002298466BE003003343FB
:1036700099464ED0002E00D1BCE1300001F0F4F9A3
:1036800003000B3B1C2B00DDACE11D22D31A5A4674
:103690000100DA4008398E401300334399465B46F7
:1036A0008B40984600233C4C0026241A03939FE746
:1036B00051465A46114329D1002293460232B1E7BE
:1036C000594601431ED05B46002B00D19EE158466F
:1036D00001F0CAF903000B3B1C2B00DD8FE1020057
:1036E0005946083A91408B461D21CB1A5146D94084
:1036F0000B0059460B4351469B469140264B0022F6
:103700001B1A8FE7002301229B468BE751460322B9
:1037100088E700239846013304260024039367E7D3
:103720000323B14603930C2662E7032A00D15CE22F
:10373000019B012A00D0E4E113409C4600230024B1
:103740000022984600211203130B0A0D12051A439A
:103750002305124C40462240134362465B00D207C9
:103760005B081343190007B03CBC90469946A2463B
:10377000AB46F0BD002380229C4612039846034CC2
:10378000E0E70023014C00229846DBE7FF0700003A
:1037900001FCFFFFD05600000DFCFFFFFFFF0F8074
:1037A000D94500D939E100D134E1002346464D46E0
:1037B0009A46013C5B460A0E1B021A430B02170C89
:1037C000039313041B0C3900280090460193FFF764
:1037D000FFF80200019B83465A43280039009146B6
:1037E000FFF77CF9350C09040D43A9450DD95B465B
:1037F0004544013BA84500D93AE1A94500D837E145
:1038000002235B429C464544E3444B46EB1A390095
:1038100018000493FFF7DCF8019B050043433900CF
:1038200004989946FFF75AF9330409041B0C0B431B
:10383000994509D943446A1E984500D91AE199452A
:1038400000D817E1023D43444A469B1A5A461204E7
:103850002A4303999346100C0A0C914609045A46D0
:10386000090C4E460D001204120C454305915143BC
:103870007243704352190E0CB218954203D9802539
:103880006D02AC466044150C09041204090C28189A
:103890005218834200D2CEE000D1C8E01D1A534630
:1038A0009E1AB24592415242AB1A9A46984500D1AF
:1038B00017E139001800FFF78BF8019B050043431F
:1038C000390050460493FFF709F904980B04310CB2
:1038D0001943884209D941446B1E884500D907E144
:1038E000884200D804E1023D4144049BCB1A1800F1
:1038F00039000493FFF76CF8019B8246434339007B
:1039000004980193FFF7EAF801980B043104090CBD
:10391000194388420DD953464144013B884500D99B
:10392000E8E0884200D8E5E002235B429C4641443F
:10393000E244019B2D04CE1A51462943059D4F4672
:103940002A000B04080C1B0C5A4345437B43784365
:103950005B19170CFB189D4203D980256D02AC46FC
:1039600060441D0C12041B04120C28189B1886427C
:1039700000D293E000D18EE001231943A04BE3185D
:10398000002B00DC99E04A0700D09EE05A46D201A5
:1039900006D55A469B4B1A4080239346DB00E3181A
:1039A000994A934268DD0123029A984C1A400023F9
:1039B000944698460022C5E680224B4612031342E5
:1039C0000AD05B46134206D11A431203120BAC46CF
:1039D00088468E4CB6E64B461A431203120BBC4681
:1039E0008A4CAFE603005A46283B9A400023914692
:1039F000984657E6584601F037F8203040E6030075
:103A00005246283B9A400021934677E601F02CF875
:103A100020305FE6884500D2C7E64B46DE075D08EA
:103A200043465B081E434346DB079A46C2E6002531
:103A3000924500D333E7039E5946B446E244B2456B
:103A4000AD416D424544EB180139984507D2984283
:103A500000D97FE000D1BCE01D1A8B461FE79845D6
:103A6000FAD1039D5545F2D943468B461D1A16E7F8
:103A70009B46CAE61500E7E65A46C90852070A43BC
:103A80005B0590465C0D5A4601230299520219408B
:103A9000120B8C4656E6002B00D16FE746444A1EB7
:103AA000B04529D91100864200D065E7039A9342B8
:103AB00000D061E762E7012149420120C21A382A99
:103AC00021DD029B03409C4638E60F220A40042A6F
:103AD00000D15BE70A00111D91429241524293448A
:103AE00054E7474BE318002BE5DD01225242F2E791
:103AF0001D00FAE69A461CE7B04239D86ED0110094
:103B00003AE702933AE71F2A3CDC20239B1A0C0079
:103B10005846994098404B1E99415B46D440D3404B
:103B2000204308431A00430709D00F230340042B06
:103B300005D00100081D88429B415B42D218130248
:103B40003AD50123029A01241A400023944698464C
:103B50000022F7E5022149428C46039DE344AC462E
:103B6000E244AA45AD416D424544ED182D1A96E652
:103B70008A1E03994D008D4289414942414476187D
:103B800003958FE71F204042C31A5846D8400300D0
:103B9000202A28D040205D46821A954029434A1E9B
:103BA00091411943072300220B4009D00F23002223
:103BB0000B400800042BBDD1010053075202120B29
:103BC000C9081943012388460299002419408C46EC
:103BD000B8E55245BED88B46002560E6039D9D4260
:103BE000C6D3110062E70025D8E780225B461203A6
:103BF0001A43019B1203120B9C468846034CA1E515
:103C0000FF030000FFFFFFFEFE070000FF070000AC
:103C1000F0B54F464646D6465C00C0B51F03DB0FE5
:103C20009A46174B0E034D0084468046360B6D0DA9
:103C3000C90F91463F0B640D01209D4208D09C4264
:103C400001D0A5420BD01CBC90469946A246F0BDBF
:103C500063463343F7D1AC42F5D13A43F3D1012067
:103C6000BE42F0D1C845EED1514507D0002DEAD172
:103C700063461E433000461EB041E4E70020E2E701
:103C8000FF070000F0B54546DE4657464E46E0B514
:103C90001F033D0B2C4F0E034C00AB465D008446CA
:103CA000360B640DC90F90466D0DDB0FBC422AD058
:103CB000254FBD422DD0002C0FD130430700814647
:103CC00078427841C0B2002D17D15F463A4314D1F3
:103CD0004B460020002B0AD006E0002D02D15846AA
:103CE000024301D0994218D04842012108433CBC0C
:103CF00090469946A246AB46F0BD0028F2D001207E
:103D0000013B1843F3E737000743D1D0022040427C
:103D1000EDE75F461743CED0F8E7AC42E4DC03DAC8
:103D2000481E01210843E2E75E45DDD806D00020A9
:103D30005E45DCD20123481E1843D8E7C445D3D8DA
:103D40000020C445F6D3D2E7FF070000F0B54E4689
:103D50004546DE4657465C00E0B51F03DB0F99463B
:103D60002A4B0E034D00C90F8446360B6D0D8B4652
:103D700090463F0B640D9D4220D0244B9C4222D0A4
:103D8000002D12D1304343424341DBB2002C1FD0FF
:103D9000002B0CD04B460120013B034318003CBCD8
:103DA00090469946A246AB46F0BD002C16D0CB45B6
:103DB00017D05B46594201230B43EFE73100022342
:103DC0000143EBD1D9E7390002231143E6D1D7E70C
:103DD0003A43DDD100230028E0D0EAE73A43E6D1B8
:103DE000E7E7A542E5DC05DBBE42E2D807D00023C9
:103DF000BE42D3D25946012301390B43CEE7C44515
:103E0000D7D80023C445F5D3C8E7C046FF07000054
:103E1000F0B557464546DE464E46E0B50C0398469B
:103E20004E00230B87B0070092469B46760DCD0FC0
:103E3000002E6BD06D4B9E4235D080245B46420FE6
:103E40002404DB0014431C43C3009946684BA3467B
:103E50009C46002300276644029343461C035A00F5
:103E6000DB0F5046240B520D984600D176E05F4B95
:103E70009A426DD08023410F1B040B435C49E40040
:103E80008C461C43C300002062444146B61869407A
:103E9000721C0191944607430F2F00D9B0E0554A98
:103EA000BF00D25997465B460343994600D087E04E
:103EB00000239B46023308270293CEE74246019235
:103EC000022867D0032800D10EE2012800D062E169
:103ED000002300240022994601990140CDB200211F
:103EE00012030B0D120B1B051343434A2405134009
:103EF0001C436400ED0764082C434846210007B0CA
:103F00003CBC90469946A246AB46F0BD0343994659
:103F10004FD05B46002B00D189E1584600F0A4FD4C
:103F200003000B3B1C2B00DD7AE11D22D31A3A0063
:103F300001005C46DA4008398C4013008F4023436F
:103F40009B46B94600232D4E0027361A029384E77C
:103F5000534623432AD10024022096E753462343A5
:103F600020D0002C00D157E1200000F07DFD03009F
:103F70000B3B1C2B00DD49E11D21CB1A51460200F1
:103F8000D9405346083A944093400C431B4A121AB6
:103F900000207AE70125019B144C1D4000230022DC
:103FA00099469CE70024002201206EE75346032037
:103FB0006BE700239B4601330427002602934CE75E
:103FC000032381460C27029347E780220023002524
:103FD00012039946054C82E75C464B4602986FE710
:103FE0005C464B46019502986AE7C046FF07000011
:103FF00001FCFFFF10570000FFFF0F800DFCFFFFCB
:104000004A464946170C1A0C1B041B0C08041900DD
:10401000000C41431500884619007D437943039500
:1040200089462900150045434D44029545462D0C0F
:10403000AA46029D5544A94506D98A4680214902CF
:104040008946CA4451460391290C0491414609040A
:104050002D04090C88462900250C24044144240C15
:104060000591210041438846210079438A466843EF
:10407000414650448146080C48446F43824503D969
:104080008021490289464F44010C89463900494440
:10409000029141460F0404993F0C88460004C01960
:1040A00080444146049159460F0C0904090C884686
:1040B00059438A4639005143894641464A4351464D
:1040C000090C8B467B43D2185A44934203D9802370
:1040D0005B029B46D94451460904090C8A46414675
:1040E00061437C43130C12044B445244A1468A465C
:1040F0003C0041466C434D4351464D440F0C7D19E5
:10410000A94503D98021490288464444049F039964
:10411000B84641448B4683458041414288465146DA
:1041200008042F04000C3F185846029910188946BD
:10413000904292414F44BA46524299469346C244F5
:10414000D144CB448F42BF41C245894199459B41EF
:10415000934592417F4249422D0C52420F435B42AC
:1041600013437F19FF185B463C19DB0D059A640267
:104170001C43430213435D1EAB415A46C00D03432B
:1041800052021343E20156D501205A08034013435B
:10419000E207134364085A48604400284DDD5A077B
:1041A00009D00F221A40042A05D01A1D9A429B41B9
:1041B0005B42E4181300E20104D58020514AC0009C
:1041C00014406044504A904200DDE3E60125DB08DC
:1041D00062071A436402019B9146220B4405640D59
:1041E0001D407CE6802259461203114208D0144239
:1041F00006D122431203120B45469946434C6EE604
:104200005B461A431203120B404C68E60300544607
:10421000283B9C400023B9E600F026FC2030A6E6AF
:104220000300283B9F400023BB4699468AE600F0E6
:104230001BFC203074E6B446ADE701252A1A382A63
:1042400006DD019B00241D4000230022994646E61E
:104250001F2A21DC20252000AD1A1E00AB40A840FB
:10426000D6405D1EAB4130431843D440430709D0CC
:104270000F230340042B05D00300181D98429B41D7
:104280005B42E418230221D50125019B01241D4036
:1042900000230022994622E61F2521006D42281A9C
:1042A000C1400800202A1DD05F35AA1A944023433C
:1042B0005C1EA341072503431D400022002D09D0A9
:1042C0000F2200241A401800042AD6D103006507E3
:1042D0006402220BDB082B4301259946019B002435
:1042E0001D40FCE50024E2E7802201251203224361
:1042F00001991203120B0D409946044CEFE5C0469C
:10430000FF030000FFFFFFFEFE070000FF070000A5
:10431000F0B54646D6464F460C03C0B5CD0F4E000D
:10432000610A440F0C43C1005800400D84468A4680
:104330000F001903500F490A0143C648760DA846DD
:10434000DB0FD200844500D1D8E001204340AB42CE
:1043500000D1A6E06046351A002D00DC05E10028FA
:1043600010D10B00134300D1D7E06B1E002B00D0FF
:104370004BE153469F1ABA458041641A4042241AC1
:1043800001261EE0B34B9E4248D080231B041943F4
:10439000382D00DD19E11F2D00DD4CE120230F0039
:1043A0005B1B10009A409F40E840531E9A41E94031
:1043B000074317435346DF1B611ABA45A4416442C1
:1043C0000C1B230200D4C5E06402650A002D00D155
:1043D000F6E0280000F048FB0300083B1F2B00DD3F
:1043E000E9E020223C00D21A9D40D4409F40254362
:1043F0009E4200DDDBE09E1B731C1F2B00DD0AE1EB
:1044000020223800D21A290097402C009140D84031
:104410007A1E9741DC40002601430F437B0709D0F9
:104420000F233B40042B05D03B1DBB42BF417F42C5
:10443000E4191F00230225D5864B01369E4200D188
:10444000AFE0854B01251C4043466207FF0864022C
:1044500076051743240B760D1D4000212403230B02
:104460000C0D7E4A24051C431440330523435B0096
:10447000ED075B082B43380019001CBC9046994699
:10448000A246F0BD012543466207FF081743E40832
:104490001D40704B9E4236D024037605240B760DCA
:1044A000DBE76346F31A002B00DC94E0604600284B
:1044B00035D068488642B1D080273F043943382B35
:1044C00000DCFDE00A43170000217A1E97415744A3
:1044D00057458041091944420C1923023AD55D4BD6
:1044E00001369E4200D14BE101225B4B1C407B0810
:1044F00017401F43E207174364088FE70800104383
:1045000000D024E721E723003B4300D1B9E180221A
:10451000120314432403240B9FE72E007EE70800B8
:10452000104300D1CAE0581E8446002800D0E7E0BE
:104530005244524580416418404224181700012615
:10454000230207D50226CFE764462C4300D1B3E10E
:104550002C0067467B0700D062E76307FF081F4314
:1045600001254346E4081D4093E7002D78D1751CD2
:104570006D056D0D012D00DCF2E05046801A82457C
:10458000BF41651A7F42ED1B8446280200D48CE0AF
:104590005046171ABA4292410C1B5542651B984669
:1045A00014E70125434600241D40002755E72A4C07
:1045B000F61A2C4032E73D0028388540002717E7DF
:1045C000380000F051FA203006E70A4317000021B6
:1045D0007A1E9741EEE6002B00D0E5E0731C9C4666
:1045E0005B055B0D012B00DC9FE01A4B9C4500D165
:1045F000C5E0524452458041641840422418E70700
:10460000520817436408664608E71248854200D1FD
:1046100085E01D00BCE629001F3EF140202B00D1A3
:104620007FE04022D31A9D402F437D1EAF410024DE
:104630000F4300268EE72B000F00203BDF40202D8C
:1046400071D040235D1BA9400A43511E8A410021BD
:104650001743AFE6FF070000FFFF7FFFFFFF0F805C
:10466000002E3ED0B34EB44545D0802636046D4270
:104670003443382D00DDA8E01F2D00DD1FE120268A
:1046800027005046761BB740E84007435046B040ED
:10469000461EB041EC403843171ABA4292410C1BF7
:1046A0005242A41A664698468BE6644667462C43F7
:1046B00000D08BE6002500260027EAE61E00ADE6C6
:1046C0001F2B60DC2027F81A0F008446874010005B
:1046D000D840074360468240501E8241D94017436C
:1046E000F5E626005046064305D0ED43002DD3D015
:1046F000904EB445BDD10C001700664698468DE635
:104700008C4883420BD06346D9E6002D00D096E05A
:104710000800104300D1E2E00C0017009846854ED7
:104720007CE6002580E700218EE723005046034306
:10473000002E00D0A8E0002B00D1DEE00B001343D8
:1047400000D16BE65244524580416418404224181F
:104750001700230200D4FDE6774B66461C405DE659
:10476000250050460543002ECFD1002D4FD10C001F
:10477000144300D1A0E00C00170098464EE66646B0
:104780000024002785E61F000800203FF8400700AE
:10479000202B00D18EE04020C31A99400A43511EBD
:1047A0008A410021174392E6002E14D1260050467C
:1047B000064362D0DB43002B5CD1871897429241BD
:1047C00064185242A418664687E650462043441EA9
:1047D000A041002460E7574EB4454ED080263604F1
:1047E0005B423443382B00DD7FE01F2B00DD8BE084
:1047F000202627005046F61AB740D84007435046B7
:10480000B040461EB0410743DC40BF18D6E70D005C
:10481000154300D102E65046801A8245BF41651A11
:104820007F42ED1B8446280200D48DE65046171ABD
:10483000BA4292410C1B5242A41A9846EEE50D0072
:10484000154300D16BE750466707C0080743802037
:10485000E4080003044207D0CD08054204D12C002F
:104860009846D70849070F437B0FE4001C43FF001D
:10487000304ED3E52F4EB445B4D10C001700664638
:10488000CCE500270024E8E5002B39D00B001343CA
:1048900000D144E7C008670707438020E40800030D
:1048A0000442E1D0CB080342DED1D70849070F43C9
:1048B0001C00D9E7002171E700250027E9E52E005B
:1048C0002700203EF740202D2FD04026751BAC40FE
:1048D00050462043441EA04100243843DCE6802497
:1048E00000252403134E0027D3E55046204307003C
:1048F000781E87410024BF1860E70C0017008DE583
:104900000C0017000B4E89E51E002700203EF740E3
:10491000202B0CD04026F31A9C4050462043441EC6
:10492000A04107430024BF1848E70024D0E7002433
:10493000F3E7C046FF070000FFFF7FFF70B50E4E94
:104940000D031C0349005B002D0B490D240B5B0D6F
:10495000B14204D0084900208B4208D070BD054305
:104960000120002DFAD1044900208B42F6D11443D6
:104970002000441EA041F1E7FF07000030B5134DB1
:104980000A034B00120B5B0DC90F0024AB4210DD74
:104990000F4CA3420FDC80240E4D64032243ED1A1A
:1049A0001F2D0BDD0C48C31ADA405442002900D1F8
:1049B0001400200030BD094BCC18FAE7084CE84041
:1049C000A44663449A400243EFE7C046FE0300005A
:1049D0001D0400003304000013040000FFFFFF7FEC
:1049E000EDFBFFFF70B5002830D0C317C4185C4042
:1049F000C50F200000F038F8174B184A1B1AD21ABE
:104A00001F2A18DD164AD21A9440002224035B059F
:104A1000240B5B0D0021100024030A0D240B12054A
:104A20002243104C1B05224013435B00ED075B083B
:104A30002B43190070BD210091400A000B21081A78
:104A4000C4405B052403240B5B0DE3E70025002332
:104A500000240022DEE7C0461E04000033040000EC
:104A600013040000FFFF0F801C2101231B04984248
:104A700001D3000C10391B0A984201D3000A0839EF
:104A80001B09984201D30009043902A2105C4018A6
:104A90007047C0460403020201010101000000004A
:104AA0000000000010B5002903D1FFF7DDFF203022
:104AB00002E0081CFFF7D8FF10BDC046014B186884
:104AC0007047C0461000002070B500260C4D0D4CFC
:104AD000641BA410A64209D1002600F083FE0A4DF3
:104AE0000A4C641BA410A64205D170BDB300EB585C
:104AF00098470136EEE7B300EB5898470136F2E7E6
:104B0000F0570000F0570000F0570000F457000085
:104B1000002310B59A4200D110BDCC5CC4540133BF
:104B2000F8E703008218934200D1704719700133EF
:104B3000F9E70000104B70B51C680500A36B002B53
:104B400015D1182000F09EF80C4BA06303800C4B8D
:104B5000012243800B4B83800B4BC3800B4B0381A3
:104B600005234381063383810023026143610022D0
:104B7000A36B1D615A6170BD100000200E33000050
:104B8000CDABFFFF341200006DE6FFFFECDEFFFF50
:104B9000154B10B51C68A36B002B15D1182000F025
:104BA00071F8124BA0630380114B01224380114B1B
:104BB0008380114BC380114B03810523438106334E
:104BC0008381002302614361A46B0D4A20696169FE
:104BD0000C4BFEF7D1F801220023801859412061C7
:104BE00061614800400810BD100000200E33000035
:104BF000CDABFFFF341200006DE6FFFFECDEFFFFE0
:104C00002D7F954C2DF451580023C25C0133002AAE
:104C1000FBD1581E704730B514009BB005001A0038
:104C2000002C05DA8B230360012040421BB030BD0D
:104C3000822368469B0083810023009104919C425B
:104C400000D0631E02930593012369465B42CB812A
:104C500028001E9B00F02AF9431C01DA8B232B60ED
:104C6000002CE3D00023009A1370DFE707B5009310
:104C700013000A00010002480068FFF7CCFF0EBDD8
:104C80001000002010B5034B0100186800F04EF82A
:104C900010BDC0461000002070B50500002910D0DE
:104CA0000C1F2368002B00DAE418280000F0B9FB81
:104CB0001D4A1368002B05D163601460280000F0C2
:104CC000B1FB70BDA34209D9216860188342F3D1BA
:104CD00018685B6841182160EEE713005A68002AE3
:104CE00001D0A242F9D919685818A0420BD1206806
:104CF0000918581819608242E0D1106852684118AA
:104D000019605A60DAE7A04202D90C232B60D5E77C
:104D100021686018824203D11068526841182160EE
:104D200062605C60CAE7C046442A0020032370B575
:104D3000CD1C9D43083506000C2D1ED20C25A94222
:104D40001DD8300000F06DFB254A146821000029B1
:104D500019D1244C2368002B03D1300000F032FB22
:104D600020602900300000F02DFB431C2CD10C23C7
:104D70003000336000F056FB03E0002DDFDA0C2337
:104D80003360002070BD0B685B1B1AD40B2B03D95A
:104D90000B60CC18256003E08C420ED16368136071
:104DA000300000F03FFB200007220B30231D904312
:104DB000C31AE7D05A42E250E4E74B6863600C0044
:104DC000EEE70C004968C2E70323C41C9C43A042E1
:104DD000E0D0211A300000F0F5FA431CDAD1C6E722
:104DE000442A0020482A0020F0B58E6885B00700CC
:104DF0000C00039201939E4239D890238A89DB00EC
:104E00001A4234D00325096923685B1A0293636947
:104E100002985D43EB0F5D19019B6D1001331B1868
:104E2000AB4200D91D00530532D529003800FFF7E9
:104E30007DFF061E09D10C233B6040230120A2897F
:104E400040421343A38105B0F0BD029A2169FFF7E8
:104E50005FFEA389144A1A4080231343A381029B57
:104E60002661F61826606561019EED1AA560019B1A
:104E7000B34200D21E0032000399206800F0BFFA4E
:104E8000A36800209B1BA36023689E192660DAE7B5
:104E90002A00380000F0C7FA061EE0D12169380068
:104EA000FFF7FAFEC7E7C0467FFBFFFFF0B59FB0F4
:104EB000029005938B890F0016001B0611D50B6914
:104EC000002B0ED14021FFF731FF386038610028F8
:104ED00005D10C23029A013813601FB0F0BD4023A6
:104EE0007B61002306AD6B6120336B761033AB76AC
:104EF00034002378002B47D1A31B04930DD0A31BB0
:104F0000320039000298FFF76FFF431C00D1B5E073
:104F10006A69049B944663446B612378002B00D13B
:104F2000ACE00122002352426A6002A954325218B6
:104F300001342B60EB60AB601370AB65584E0522FB
:104F40002178300000F050FA621C002820D1296836
:104F5000CB0604D5532302AE20309B1918700B07E3
:104F600004D553232B2002AE9B19187023782A2BCB
:104F700016D000200A21099B2278303A092A55D9F7
:104F8000002815D0099313E0252BB5D00134B0E7E4
:104F90000123801B8340296814000B432B60CDE75D
:104FA000059B181D1B680590002B39DB0993140025
:104FB00023782E2B0BD16378621C2A2B3ED1059BC4
:104FC00002341A1D1B680592002B34DB0793354E03
:104FD00021780322300000F007FA002806D0402391
:104FE000801B83402A68013413432B6021780622FA
:104FF0002D48661C297600F0F7F9002846D02B4B87
:10500000002B2FD12968059B0722C90528D59B189D
:105010009343083305936B69039A9B186B6167E7A9
:105020005B42EB6002230B432B60C0E74B43013430
:105030009B180120A0E701235B42C7E7002314006F
:105040000A201A006B6021783039092903D9002B16
:10505000BDD00792BBE74243013452180123F2E767
:105060000733D5E705AB00933A00114B29000298AE
:1050700000E000BF0390039B0133CCD1BB890B98A8
:105080005B0600D429E70120404226E705AB0093E8
:105090003A00074B2900029800F07AF8EAE7C04688
:1050A000B0570000B6570000BA57000000000000DB
:1050B000E94D0000F7B5150001938A680B6900906F
:1050C0000C00934200DA130022002B604332127866
:1050D000002A01D001332B6023689B0602D52B6880
:1050E00002332B60062723681F4027D02300433359
:1050F0001B785A1E93412268920630D422000199EF
:1051000043320098089EB047431C25D006232068F0
:105110002A68E16803400025042B03D18D1AEB4374
:10512000DB171D40A3682269934201DD9B1AED182D
:105130000027BD4220D1002010E00137E3682A6833
:105140009B1A9F42D2DA220001231932019900985A
:10515000089EB047431CF0D101204042FEBD3020E4
:10516000E1184331087021005A1C45310978A21812
:10517000433202331170C1E7220001231A32019930
:105180000098089EB047431CE6D00137D1E70000E5
:10519000F0B58BB006920A00433207930590049253
:1051A0000A7E0C00109B6E2A00D18FE017D8632A6C
:1051B0002CD008D8002A00D199E0582A54D02600D3
:1051C0004236327029E0642A01D0692AF7D1216879
:1051D0001A68080623D5111D1960156825E0732A81
:1051E00000D188E008D86F2A29D0702AE7D1202280
:1051F00009680A43226003E0752A20D0782ADED1AC
:1052000022007821453211706C4A30E00E001A6895
:105210004236111D196013683370012379E0490685
:10522000D9D5111D19600023D55E002D03DA2D2379
:10523000049A6D421370624B0A2703932FE0206893
:105240001968050603D5081D18600D6805E04006BD
:10525000F9D50D68081D1860ADB2594B08270393A6
:105260006F2A18D00A2716E045310A70544A039273
:105270001A682168101D18601568080622D5CB072A
:1052800002D52023194321601027002D03D12023AC
:1052900022689A4322602300002243331A70636815
:1052A000A360002B5CDB0422216891432160002D68
:1052B00058D1049E002B64D02600039B42361B78F5
:1052C00033705EE04806DAD5ADB2D8E709681A68EF
:1052D000080605D5111D1960136862691A6006E099
:1052E0004906F7D5111D19601368A28A1A80002398
:1052F000049E236154E01A68111D1960166800218C
:105300006268300000F070F8002801D0801B6060F7
:10531000636823610023049A137041E0236932001B
:1053200006990598079DA847431C43D0236800258C
:105330009B070FD4099BE06898423DDA18003BE0D8
:1053400022000123193206990598079EB047431C95
:1053500030D00135E368099A9B1A9D42F0DBE9E7FA
:10536000002DA9D0049E28003900FDF7B7FB039B50
:10537000013E5B5C280033703900FDF729FB051EF8
:10538000F1D1082F09D12368DB0706D563682269AC
:10539000934202DC3023013E3370049B9B1B23614C
:1053A000079B09AA00932100069B0598FFF782FE40
:1053B000431CB3D1012040420BB0F0BDD2570000D6
:1053C000C1570000002370B5064C0500080023609B
:1053D000FCF746FF431C03D12368002B00D02B6051
:1053E00070BDC046642A0020C9B28218904201D123
:1053F0000020704703788B42FBD00130F6E710B5F0
:10540000884202D98B18984208D300239A4207D0C9
:10541000CC5CC4540133F9E78B5C8354013AFBD272
:1054200010BD70477047F8B507000D001600002941
:1054300005D11100FFF77AFC04002000F8BD002A16
:1054400003D1FFF729FC3400F7E700F012F82C0035
:105450008642F2D931003800FFF768FC041EECD018
:1054600029003200FFF754FB29003800FFF714FC35
:10547000E3E70B1F1B68181F002B01DA0B58C0183D
:105480007047000050190000B1090000A109000098
:1054900091090000810900002109000011090000A4
:1054A00001090000F108000080250000C012000082
:1054B0008025000000E10000000010000000100046
:1054C000000010000000310003000400030005008C
:1054D000FFFFFFFFFFFFFFFF03002800030029007D
:1054E000FFFFFFFFFFFFFFFF02003000020031005F
:1054F000FFFFFFFFFFFFFFFFFFFFFFFFFFFFFFFFBC
:1055000002001800020019000008004200180042C2
:10551000001C00420014004200080042000C00423F
:10552000001000420014004200180042001C00421B
:10553000661C0000621C0000621C0000B21C00001F
:10554000B21C00007A1C00006C1C0000801C0000D3
:10555000381D0000181D0000181D0000881D0000E7
:105560002A1D0000461D00001C1D0000541D0000E7
:10557000496E697469616C697A696E672045455046
:10558000524F4D202E2E2E20000000004661696CE7
:105590006564210D0A000000436F6D706C657465D1
:1055A0002E0D0A004372656174696E672061206D7B
:1055B000697373696F6E202E2E2E200057726974E6
:1055C000696E67206D697373696F6E20746F2074E4
:1055D000686520454550524F4D3A0D0A00000000C5
:1055E000456E74727920253264202E2E2E20000004
:1055F00047657474696E672063757272656E742096
:1056000077617920706F696E7420253264202E2EA8
:105610002E200000436F6D706C657465210D0A00CB
:105620006C61743A20253468692E256C7520646598
:105630006720207C20253468692E256C75206465E0
:10564000670D0A006C6F6E3A20253468692E256C50
:10565000752064656720207C20253468692E256CC0
:1056600075206465670D0A007261643A202534680C
:10567000692E256C75206D20207C20253468692ECC
:10568000256C75206D0D0A00436F6D706C65746933
:105690006E672077617920706F696E74202E2E2ED0
:1056A000200000005465737420636F6D706C657426
:1056B00065210D0A00000000666D6F6400000000A7
:1056C000000000000000000000000000000000805A
:1056D000A0370000823700003C3700005A36000037
:1056E0003C370000743700003C3700005A36000099
:1056F0008237000082370000743700005A360000FD
:10570000523600005236000052360000B839000010
:1057100000400000C03E0000C03E0000BC3E000053
:10572000D83F0000D83F0000CA3F0000BC3E000048
:10573000D83F0000CA3F0000D83F0000BC3E000038
:10574000E03F0000E03F0000E03F0000E4410000D7
:105750000000000000000000000000000000000049
:105760000000000000000000000000000000000039
:105770000000000000000000000000000000000029
:105780000000000000000000000000000000000019
:105790000000000000000000000000000000000009
:1057A00000000000000000000000000000000000F9
:1057B000232D302B2000686C4C00656667454647FA
:1057C000003031323334353637383941424344457D
:1057D00046003031323334353637383961626364EC
:1057E00065660000F8B5C046F8BC08BC9E46704728
:1057F000CD000000F8B5C046F8BC08BC9E46704716
:04580000A5000000FF
:0858040004D6FF7F0100000043
:10580C00BFF35F8F01380028FAD170470101000007
:10581C00140000200000000070570000905700009A
:10582C0050570000000000000000000000000000C5
:10583C00000000000000000000000000000000005C
:10584C00000000000000000000000000000000004C
:10585C00000000000000000000000000000000003C
:10586C00000000000000000000000000000000002C
:04587C000000000028
:04000003000021C90F
:00000001FF
